:020000040800F2
:10000000E80C0020450200084D0200084F020008DD
:1000100051020008530200085502000800000000C9
:10002000000000000000000000000000570200086F
:1000300059020008000000005B0200085D02000891
:100040005F0200085F0200085F0200085F0200080C
:100050005F0200085F0200085F0200085F020008FC
:100060005F0200085F0200085F0200085F020008EC
:100070005F0200085F0200085F0200085F020008DC
:100080005F0200085F0200085F0200085F020008CC
:100090005F0200085F0200085F0200085F020008BC
:1000A0005F0200085F0200085F0200085F020008AC
:1000B0005D2500085F0200085F0200085F0200087B
:1000C0005F0200085F0200085F0200085F0200088C
:1000D0005F020008052900085F02000841290008A6
:1000E0005F0200085F0200085F02000800F002F8EB
:1000F00000F090F80AA090E8000C82448344AAF132
:100100000107DA4501D100F085F8AFF2090EBAE82F
:100110000F0013F0010F18BFFB1A43F0010318473B
:10012000DC720000FC720000103A24BF78C878C16D
:10013000FAD8520724BF30C830C144BF04680C60ED
:10014000704700000023002400250026103A28BF35
:1001500078C1FBD8520728BF30C148BF0B60704739
:100160006E2900F0EF81702900F03183662903F0D9
:100170004787652903F04487672903F04187612990
:1001800003F0408703681B0A28BF41F080016929FA
:1001900000F09C81642900F09981752900F0968116
:1001A0006F2900F0BF82782900F0FD82E92900F074
:1001B0005982E42900F05682F52900F05382EF2994
:1001C00000F0BC82F82900F0FC820368DB0928BF3C
:1001D00041F08001632901F05580732901F05A80B4
:1001E000E32901F06580F32901F06A80002070475F
:1001F0001FB500F00FFC04000020002103F056FEA4
:10020000401C60600020002103F066FEE0601FBD1E
:1002100010B510BD01F086F81146FFF7E9FF03F0B5
:1002200063F801F053F903B4FFF7F2FF03BC01F0E8
:1002300057F900004FF07300A0F101000028FBD136
:10024000704700000948804709480047FEE7FEE77D
:10025000FEE7FEE7FEE7FEE7FEE7FEE7FEE7FEE776
:1002600004480549054A064B70470000FD24000874
:10027000ED000008E8060020E80C0020E808002057
:10028000E80800201CB50C46064B7B4469460090EC
:10029000204600F070F904460020694600F07EF91F
:1002A00020461CBD0F0300002DE9F04791460F4684
:1002B00080460446002614F8015B2DB100F098F842
:1002C0000068405DC007F6D12B2D02D02D2D18D02F
:1002D000641E4A463946204600F048FB27B139687B
:1002E000A14201D1C7F800804FF0020471050BD57F
:1002F0004042002803DD00F083F80460A007BDE859
:10030000F08746F48066E4E70028F8DA00F078F831
:1003100004606FF00040F2E74FF0000200B51346B2
:1003200094469646203922BFA0E80C50A0E80C5015
:10033000B1F12001BFF4F7AF090728BFA0E80C50C6
:1003400048BF0CC05DF804EB890028BF40F8042BBF
:1003500008BF704748BF20F8022B11F0804F18BF2C
:1003600000F8012B704700004FF0013C50F8042BBF
:1003700051F8043B9A4221D1A2EB0C03934313EAB8
:10038000CC1317D150F8042B51F8043B9A4215D1E5
:10039000A2EB0C03934313EACC130BD150F8042BBC
:1003A00051F8043B9A4209D1A2EB0C03934313EAA0
:1003B000CC13DBD04FF00000704700BFD01A01BA59
:1003C000B1FA81F101F0180122FA01F0CB40C1F13C
:1003D0002001DBB2C0B2C01A2CFA01F3D11A91434A
:1003E00011EAC311E6D170477047704770470000AB
:1003F00010B500F00FFB001D10BD00BFB13A0000AA
:10040000004870478406002070B50446856900687E
:10041000C10601D5302600E02026C00707D070BDF8
:10042000D4E9012130469047206A401C20626D1EAD
:10043000F6D570BD70B5044685690078C00707D150
:1004400070BDD4E9012120209047206A401C206221
:100450006D1EF6D570BD09684A0501D540B27047DA
:10046000C905FCD500B2704709684A0501D5C0B27C
:100470007047C905FCD580B2704770B50C4605467B
:10048000012A05D02878800600D5EA69002302E019
:10049000012305E05B1C934202D2E05C0028F9D105
:1004A000A869E618C01AA861286A18442862284674
:1004B000FFF7AAFF04E0D5E9012114F8010B9047EA
:1004C000B442F8D32846FFF7B5FF70BD2DE9F041DF
:1004D0000646002410687529314616A510D0FFF78E
:1004E000BAFF002802DA404213A507E031688A0704
:1004F00001D512A502E0490704D511A5012401E0A8
:10050000FFF7B2FF00210A2206F1240709E0B0FB41
:10051000F2FCB0FBF2F302FB1C00303078541846BA
:10052000491C0028F3D123462A463046BDE8F04155
:1005300000F0B9BA000000002D0000002B00000000
:100540002000000011680268006A530501D5087098
:100550000AE0D30501D5088006E0130603D5C217CB
:10056000C1E9000200E008600120704701694A1CEF
:1005700002610878704700B58FB0CDE901310021E4
:10058000059105497944CDE903101146684600F00C
:1005900029F90FB000BD0000E5FFFFFF0A6802F86F
:1005A000010B0A60704700002DE9FF5F15468A467F
:1005B0000446DFF8AC80F8440027D8E900103E4636
:1005C000CDE9001010E03AF816106A4602A800F0D3
:1005D00089FE411C07D02178890603D5E2693918C4
:1005E00091420DD80744761C2078800602D5E06938
:1005F000B84205DDAE42E6DB3AF816000028E2D14B
:10060000A069C01BA0612046FFF7FEFED8E90010DC
:10061000CDE90010002017E03AF818106A4602A849
:1006200000F060FEB0F1FF3F81460BD000250DF1D8
:10063000080B05E0D4E901211BF8050090476D1C6B
:100640004D45F7D308F10100B0428046E4DB206A53
:10065000384420622046FFF7EDFEBDE8FF9F000012
:10066000466D00002DE9F0418046D21D22F00702C0
:100670000025D2E90002F52915A614D0011E72F159
:10068000000106DA0023D0EB030063EB020211A69F
:1006900008E0D8F800108B0701D50FA602E0490743
:1006A00001D50EA601251146002408F1240704E017
:1006B00000F0B4F930323A55641C50EA0102F7D127
:1006C0002B46324621464046BDE8F04100F0EBB9EA
:1006D000000000002D0000002B00000020000000A2
:1006E00030B4002100F1240408E002F00705D2082C
:1006F000303542EA4372DB086554491C52EA03056F
:10070000F3D10468002310A2250708D504F02004C3
:100710000C4304D0C46901230CA2641EC46130BC24
:1007200000F0C1B910B5044621461068FFF79CFEE1
:1007300002462046BDE810400023D1E7D21D22F03A
:100740000701D1E90023CBE70000000030000000E2
:10075000F0B40D460188090502D5214C7C4402E025
:100760001F4C7C440E34002100F1240608E002F006
:100770000F071209E75D42EA03721B097754491C0F
:1007800052EA0307F3D102780023120704D5702D33
:1007900006D009B1022311342246F0BC00F083B91F
:1007A00001231034F8E770B504460D462146106861
:1007B000FFF75AFE024629462046BDE87040002356
:1007C000C6E7D21D22F00703D3E90023C0E7036880
:1007D000126843F0200303600823C3610023B7E7D6
:1007E000A86B00002DE9F05F894604464FF0000A2F
:1007F000DFF874B1FB44C0F820A02046E1688847C8
:10080000002874D0252806D0D4E901219047206A19
:10081000401C2062F1E700265F462046E1688847D9
:100820002028054607DB312D05D2781910F8200C59
:1008300008B10643F1E7B00701D526F00406C4F875
:100840001CA00027C4F818A02A2D09D0284602F0C1
:10085000D5F938B304EB8708303DC8F8185019E0D3
:1008600059F8041B204604EB87029161E168884730
:10087000012F054618D1E069002820DA26F020066D
:100880001DE0D8F8180000EB800005EB4000303880
:10089000C8F818002046E1688847054602F0AEF91E
:1008A0000028EED1012F0AD02E2D08D12046E16874
:1008B00088477F1C0546022F46F02006C4DBA0694E
:1008C000002803DA404246F00106A061F00701D09B
:1008D00026F010066C2D0BD0682D09D04C2D39D088
:1008E0006A2D35D0742D35D07A2D33D016E038E00E
:1008F000E1682F4620468847B842054609D16C2F4B
:1009000026D04FF48060E1680643204688470546BC
:1009100004E06C2F1AD04FF4807006430DB3A5F19C
:100920004100192802D8203546F400664A46294677
:10093000204626604E46FFF713FC80B101280BD0FD
:10094000F61D26F0070000F1080956E74020E4E70D
:100950008020D8E70020D6E706F104094DE72846B5
:1009600052E7206ABDE8F09F386B00002DE9F05F88
:10097000824615468B4600270AF10104B9460078E5
:10098000302801D09DB113E014F8010B012778281D
:1009900003D0582801D045B10AE00DB1102D07D180
:1009A000002714F8010B102502E0082500E00A25B5
:1009B0000026B0460EE005FB080005FB06F1012706
:1009C0001FFA80F801EB1046B6F5803F00D3B94618
:1009D00014F8010B294600F077FC0028EBDABBF194
:1009E000000F05D00FB1641E00E05446CBF8004064
:1009F000B9F1000F06D0FFF703FD02210160C81E08
:100A0000BDE8F09F48EA0640FAE70000004870475A
:100A10008406002000487047A406002030B5B0F1DD
:100A20000A024FEA900E71F100034EEA817EB0EBAC
:100A30000E0061EB91014FEA101E4EEA017E10EBB1
:100A40000E0041EB11114FEA102E4EEA016E10EB31
:100A50000E0041EB11214FEA104E4EEA014E10EB11
:100A60000E0041EB1141401841F100014FEAD00066
:100A700040EA41704FEAD10110EB80054FEA810452
:100A800044EA907444EB01046D1944EB0404521BD6
:100A9000A3414FF0000348BF0A3200D530BD401CCF
:100AA00041F1000130BD2DE9F0470D4699469246CF
:100AB000044600F124080168880604D5E06921F0A5
:100AC0001001216000E00120A84201DD471B00E089
:100AD0000027A1697A1902EB0900081AA0612078A1
:100AE000C00602D42046FFF78FFC002608E0D4E9B8
:100AF00001211AF806009047206A401C761C2062EB
:100B00004E45F4DB2078C0060AD52046FFF77CFC72
:100B100006E0D4E9012130209047206A401C206281
:100B2000381EA7F10107F4DC07E0D4E9012118F829
:100B300005009047206A401C2062281EA5F101058F
:100B4000F3DC2046FFF776FC2078000602D5022071
:100B5000BDE8F0870120FBE770472DE9FF4F0C4609
:100B60001E464FF0FF378BB0D2E90001DDF8608000
:100B70000A908A46C1F30A5505B93D460021084648
:100B80004FF00000BAF1000F00F4400005DA00EB6E
:100B900080004FF4400101EA50004FEA9059B9F14A
:100BA000010F00DDB9460A9850EA4A000ED044F61B
:100BB0001050A5F2FF3545432F14B8F1000F1ED099
:100BC0007542291E1EDDC9F100021CE0B8F1010FBB
:100BD0004FF0000001D0302103E0F24305E0215442
:100BE000401CB042FBDB30460022002121540B990F
:100BF000C1F80880C1E900200FB0BDE8F08FBD1B2F
:100C00006D1CDEE74A4600DA694206A800F0F0FBF8
:100C100006AB93E8070003AB83E8070050460A9948
:100C200000F065FC8DE80700A0F500501F3800902B
:100C30000398002D09DD42F21F014A46084403A92A
:100C40000390684600F0C4FE08E0A0F500504A4654
:100C50001F3803A90390684600F0CEFE8DE8070018
:100C60000004000C03D04FF0FF30410800E01046B4
:100C7000B8F1000F03D00022009215461EE0751E49
:100C800005D4FFF7CBFE303262556D1EF9D5B34661
:100C90000122084302D000227F1C04E02078302883
:100CA00001D100227F1E002A099786D01DE0112D58
:100CB00007DAFFF7B3FE303262556D1C50EA0102CD
:100CC000F5D1084302D00098C8B10EE00021681E9B
:100CD00005E0235C625C63542254401E491C81423F
:100CE000F7DBAB46A81B401E0990002004F80B0060
:100CF0000B98099AC0F80880C0E9002B7CE7112600
:100D00004FF0000859E72DE9F04F88460446D21D00
:100D100022F0070191B0D1E90001CDE90A0101F00B
:100D20001AFF02460B98C00F01D02D2007E0206863
:100D3000810701D52B2002E0202101EAC000032A0F
:100D4000099001D0072A05DB03464146204600F002
:100D50000FFB0BE12078800601D5E06900E006205A
:100D6000B8F1650F814606D0B8F1660F18D0B8F11A
:100D7000670F70D131E00020B9F1110F009001DB55
:100D8000112301E009F101030AAA01A90CA8FFF748
:100D9000E4FEDDE90C70002609F10105834647E019
:100DA00001204B4600904FF000470AAA01A90CA869
:100DB000FFF7D3FEDDE90DB00C995D46002610B9B2
:100DC00009F101000D18B9EB050003D4C0F1FF369D
:100DD00009F10105A5EB09002BE0B9F1010F01DADA
:100DE0004FF001090020B9F1110F0090484601DDD4
:100DF000112300E003460AAA01A90CA8FFF7ADFEE3
:100E0000DDE90C704D4600268346207800070AD4A1
:100E1000AB4500DA5D4601A8012D04DD411911F84A
:100E2000011C302907D04F4502DA17F1040F04DA0C
:100E3000012082460FE06D1EEEE7002F02DCED1B65
:100E40003E4403E0781CA84200DD7D1CB81B00F185
:100E5000010A4FF000472078000703D4AA4501DBC0
:100E60004FF0FF3A0021B7F1004F0DF143088DF824
:100E7000431024D002202B23002F01DA7F422D23A0
:100E80000A21021EA0F1010000DC5FB197FBF1FC1A
:100E900097FBF1F201FB1C7C17460CF1300C08F8B3
:100EA00001CDEEE7A8F1010003702188090501D505
:100EB000452100E06521A0F1010800F8011C099816
:100EC0000FA9A1EB0807FF1D00B10120411901EB9B
:100ED000EA70A1693844081A401EA0612078C00653
:100EE00002D42046FFF790FA099828B1D4E90121ED
:100EF0009047206A401C20622078C00622D52046F8
:100F0000FFF782FA1EE0002E04DBB34502DD01A8E4
:100F1000805D00E03020D4E901219047206A401C28
:100F20002062761CAAF101005FEA000A0AD1FFF7ED
:100F300071FDC0680168405CD4E901219047206AD6
:100F4000401C2062281EA5F10105DCDC07E0D4E985
:100F5000012118F8010B9047206A401C2062381EBE
:100F6000A7F10107F3DC2046FFF764FA032011B074
:100F700043E600002DE9F04F04460D46D21D22F055
:100F8000070089B0D0E900974846394601F0E3FDF3
:100F90000246F80F01D02D2307E02068810701D514
:100FA0002B2302E0202101EAC0038DF820300BB191
:100FB000012000E00020032A824601D0072A04DB3A
:100FC0002946204600F0D4F93FE12078800601D47C
:100FD0000D2500E0E569C7F30A560D2D49DA002119
:100FE0004FEA175B08464FF00000002F00F4400066
:100FF00007DA00EB80004FF4400100EBD07001EA0B
:1010000060008115012901DD4FF0FF3100224FEA18
:10101000850CBCF1180F06D31346ACF118004FF045
:101020008052C24003E04FF4801323FA0CF30CF11A
:101030000C0CBCF1200F04D3ACF1200C09FA0CF01D
:1010400001E007FA0CF000294FF0004801DD18B963
:101050000FE00ED140450CD319EB02095F4121B9D5
:10106000404502D19F4329EA0209BBEB175F00D03C
:10107000761C2088000502D57B48784402E07A4837
:101080007844193808AA302302F80A30037C0AF1A0
:101090000101002E0AF1020A53546A4602DC4FF0A5
:1010A000300101E04FF031014FF001088DF80010E0
:1010B00002D0A6F2FF3603E059EA470100D06B4E9A
:1010C000002D02DC2178090704D54FF002082E21FB
:1010D0008DF80110C44600210BE0C7F303433F0124
:1010E000C35C491C6D1E02F80830052908F101088F
:1010F00001DA002DF1DC00210CE000EB1973491C32
:101100001B786D1E082902F808304FEA091908F10A
:10111000010801DA002DF0DC21688B0602D516E00B
:10112000A8F10108E04505DD02EB080313F8013CD6
:10113000302BF5D0B8F1000F09DD02EB080313F8EE
:10114000013C2E2B03D1090701D4A8F10108002D81
:1011500005DD3E2102F808106D1E08F10108407CF3
:10116000002E02F8080008F1010804DA2D2076426A
:1011700002F8080002E02B2002F808000A214FF4D0
:101180007A70864208F101080BDB96FBF0F33033EE
:1011900002F8083096FBF0F308F1010800FB136633
:1011A00001E0642E0CDB642096FBF0F3303302F890
:1011B000083096FBF0F308F1010800FB136601E02C
:1011C0000A2E06DB96FBF1F0303002F8080008F139
:1011D000010896FBF1F001FB1060303002F80800C6
:1011E000A16908F1010808EB050202EB0A00081AE0
:1011F000A0612078C00602D42046FFF705F9216AD5
:1012000008AE01EB0A00206204E0D4E9012116F8DF
:10121000010B9047BAF1010AF7D22078C00602D537
:101220002046FFF7F1F86E4609E016F8010B3E285C
:101230000FD0D4E901219047206A401C2062B8F108
:101240000108F2D22046FFF7F5F809B00320BDE807
:10125000F08F206A2844206203E0D4E90121302085
:1012600090476D1EEBD3F8E7D662000002FCFFFF4B
:1012700010B5436913B1AFF3008001E0FFF7FDF84B
:10128000012010BD127800F124010A7000224A707A
:101290000122EDE711684FF0FF32E9E710B543692D
:1012A00013B1AFF3008001E0FFF77EF9012010BD1C
:1012B000128800F1240182840022C2840122EDE719
:1012C00011684FF0FF32E9E73A2800D2303820F0B9
:1012D0002002412A01D3A2F13700884201D34FF006
:1012E000FF30704770B516460C460546FFF780F88C
:1012F000036893F80101012806D0FF2C0FD8185D70
:1013000068B101202C7070BDD3F807013246214628
:1013100003F2071303442846BDE8704018474FF016
:10132000FF3070BD7546FFF771FBAE46050069469C
:10133000534620F00700854618B020B5FEF790FF11
:10134000BDE820404FF000064FF000074FF00008C6
:101350004FF0000B21F00701AC46ACE8C009ACE847
:10136000C009ACE8C009ACE8C0098D467047000070
:101370002DE9F0411F46044603260168072A01F4BF
:10138000006004DB08B116A505E016A503E008B16E
:1013900015A500E015A521F010002060A069C01E71
:1013A000A0610FB1401EA0612046FFF72DF84FB19C
:1013B000D4E9012138469047206A401C2062C01CB5
:1013C000206206E0206AFAE7D4E9012115F8010B52
:1013D0009047761EF8D22046FFF72CF8BDE8F08142
:1013E0004E414E006E616E00494E4600696E6600C9
:1013F0002DE9F047814616468AB0334878440DC837
:101400008DE80D0030487844801C03AC0DC884E89A
:101410000D0041F69B300844372190FBF1F290FB20
:10142000F1F5A5F1800501FB12041B3C02D56442D5
:10143000012000E00020DFF890A080460027FA4459
:10144000AAF1BE0A0DE0E00709D03246684607EB74
:1014500047010AEB810100F0CFFA8DE80700641024
:101460007F1C002CEFD1184F7F44AC3F18E0E807F9
:1014700014D007EB04100DF1180A90E80E008AE86A
:101480000E00C068F04201D198190890324606A9B2
:1014900003A800F0B1FA03AB83E807006D10641CE9
:1014A000002DE4D132466946B8F1000F03A802D0FE
:1014B00000F08EFA01E000F09FFAC9E90001C9F8D6
:1014C00008200AB0BDE8F087E45F000010B50446CC
:1014D000AFF300802046BDE81040FEF7A4BE000038
:1014E00001491820ABBEFEE72600020070475FEA04
:1014F000400C08BF91F0000F4FEA8C234FEAC12245
:1015000043EA51514FEA1C5018BF00F5F0404FEA32
:10151000300018BF41F000415FEA6C5C00F02980A8
:10152000BCF1FF3F08BF40F080407047130C06BF7E
:1015300012044FF0100C4FF0000C130E04BF1202F7
:101540000CF1080C130F04BF12010CF1040C930FE3
:1015500004BF92000CF1020CD30F04BF52000CF137
:10156000010C11464FF00002A0F11F00A0EB0C008F
:10157000704711F0004F08BF704731F000413FF451
:10158000D5AF0B0C06BF09044FF0100C4FF0000C48
:101590000B0E04BF09020CF1080C0B0F04BF09016C
:1015A0000CF1040C8B0F04BF89000CF1020CCB0F63
:1015B00004BF49000CF1010CCCF12003A0EB0C009E
:1015C00022FA03F302FA0CF241EA030100F10100EE
:1015D000704720F07F4C80EA030023F07F47ACEB9C
:1015E000070303F57C5300F0004003F1FF032DE9EE
:1015F00080494FEA154B09B44FEA144325EA0B4ED4
:1016000024EA03480FF2042606EB132749083E7824
:101610005FEA320203FB0667C7F5000707FB06F621
:101620004FEA54374FEAD64606F1020607FB066C2E
:10163000CCF1005C4FEA1C472CEA074C07FB06F490
:101640000CFB06F504EB15464FEA961634BF002056
:101650004FF000404FEAD13706FB07FC4FEA1C4C25
:101660000CFB0BF7D21B03FB0CF761EB07010CFB28
:101670000EF7B0EB074072EB17420CFB08F734BFD4
:10168000A2EB0742B2EB074261EB17414FEA0C4471
:101690004FEA910706FB07FC4FEA1C4C0CFB0BF7CB
:1016A000B0EBC74072EB573203FB0CF734BFA2EB31
:1016B000C742B2EBC74261EB57310CFB0EF7B0EB00
:1016C000C70072EB57720CFB08F734BFA2EBC702DE
:1016D000B2EBC70261EB5771039F4FEA816141EAA8
:1016E000921104EBCC044FEAD1374FEA826206FB39
:1016F00007FC42EA90124FEA80604FEA1C4C0CFB58
:101700000BF7D21B03FB0CF761EB07010CFB0EF789
:10171000B0EB074072EB17420CFB08F734BFA2EBAB
:101720000742B2EB074261EB17414FEA8C554FEA93
:10173000910704EB9C2406FB07FC4FEA1C4C0CFBB6
:101740000BF7B0EBC74072EB573203FB0CF734BF1B
:10175000A2EBC742B2EBC74261EB57310CFB0EF76D
:10176000B0EBC70072EB57720CFB08F734BFA2EB6B
:10177000C702B2EBC70261EB577115EB4C254FEA7C
:10178000816141EA92114FEA82624FEAD13742EA1F
:10179000901206FB07FC44F100044FEA80604FEA18
:1017A0001C4C0CFB0BF7D21B03FB0CF761EB070186
:1017B0000CFB0EF7B0EB074072EB17420CFB08F77F
:1017C00034BFA2EB0742B2EB074261EB174115EBC6
:1017D0001C154FEA813141EA92414FEA823242EAD6
:1017E00090424FEA80304FEA0C7644F1000448EA18
:1017F00003434EEA0B484FF0000EB2EB080C71EBBE
:10180000030724BF624639464EEB0E0E4FF0000B25
:101810000018524149414BEB0B0BB2EB080C71EB3A
:1018200003077BF1000B24BF624639464EEB0E0ED8
:101830004FF0000B0018524149414BEB0B0BB2EB40
:10184000080C71EB03077BF1000B24BF624639469D
:101850004EEB0E0E51EA020718BF46F0010616EBDA
:101860000E7655F1000254F1000103D5BDE889015F
:10187000BDE80088BDE88901BDE80048B6195241BD
:1018800041EB0101A3F10103704780807F7E7D7CE5
:101890007B7A7978777676757473727171706F6E02
:1018A0006E6D6C6C6B6A6A696868676666656464AD
:1018B000636362616160605F5F5E5E5D5D5C5C5B37
:1018C0005B5A5A59595858575756565555555454A6
:1018D000535352525251515050504F4F4F4E4E4D04
:1018E0004D4D4C4C4C4B4B4B4A4A4A494949484850
:1018F0004847474747464646454545444444444390
:1019000043434342424242414141002B26D47700A7
:1019100021D01CB54FEA370703B44FF010004FF049
:1019200010014FF000000FBCBDE810400BF1010B9F
:10193000BBF1010F08BF5FEA170722BF12F10102D6
:1019400011F101014FF0004143F1000300F00040AC
:1019500043EA00007047F9D35708DAE746EA06463B
:1019600013F1400F4FEA16461FDD13F1200FDFBFC2
:1019700016430A46002120335B42C8D0C3F120073A
:1019800046EA064602FA07F74FEA164646EA07060F
:10199000C3F1200722FA03F201FA07F721FA03F153
:1019A0004FF0000342EA0702B1E746EA020646EAC0
:1019B00006464FEA164646EA0106BCBF46EA064618
:1019C000360C4FF000034FF000024FF000019EE78D
:1019D0002DE9C048934630B491E8380007C831EA91
:1019E000400C48BF34EA430C03D5FFF7F2FDFFF784
:1019F0008CFFF0BCBDE800882DE9C048934630B4A8
:101A000091E8380007C810F0804F08BF13F0804FEE
:101A100003D100F005F8FFF778FFF0BCBDE80088BF
:101A200020F07F4780EA030023F07F4C07EB0C0394
:101A3000A3F57C5300F00040A3F1FE0392F0000FE9
:101A400000F0B38095F0000F00F077802DE9014998
:101A50004FEA11404FEA144621EA004800FB06FC19
:101A600024EA064708FB06F607FB08F800FB07F721
:101A700018EB06484CEB164C4FEA124B18EB074894
:101A80004FEA15464CEB174022EA0B4E0BFB06FCC7
:101A900025EA06470EFB06F607FB0EFE0BFB07F7D3
:101AA0001EEB064E4CEB164C4FF000061EEB074E9D
:101AB0004CEB174B18EB0B0840F1000018EB0E0B2A
:101AC00058EB000840F100008F1A4FF000013CBFB6
:101AD000C943661B14BFB5EB040C00213CBFC943CE
:101AE000F61B4FEA17444EEA8E0E27EA04454FEAEA
:101AF0001C4704FB07622CEA074C05FB07F70CFBAD
:101B000005F604FB0CFC16EB074642EB174216EBFE
:101B10000C4642EB1C421BEB060658EB020241410D
:101B200046EA9E0601D5BDE80189B619524141EB4E
:101B30000101A3F10103BDE801894FEA14454FEA11
:101B4000114724EA054621EA074C05FB07F406FB8A
:101B500007F70CFB06F105FB0CFC11EB074144EB0E
:101B600017444FEA124711EB0C4144EB1C4422EAA4
:101B7000074C05FB07F206FB07F70CFB06F605FB17
:101B80000CFC16EB074642EB174216EB0C4642EBF9
:101B90001C456A1854F1000148BF7047B6195241FC
:101BA00041EB0101A3F10103704795F0000F37D01D
:101BB0004FEA11424FEA144721EA024624EA074C51
:101BC00002FB07F106FB07F70CFB06F402FB0CFC1B
:101BD00014EB074441EB17414FEA154714EB0C4453
:101BE00041EB1C4125EA074C02FB07F506FB07F712
:101BF0000CFB06F602FB0CFC16EB074645EB174503
:101C000016EB0C4645EB1C42121951F1000148BF7E
:101C10007047B619524141EB0101A3F1010370472E
:101C20004FEA14454FEA114724EA054621EA074CDA
:101C300005FB07F106FB07F70CFB06F24FF0000669
:101C400005FB0CFC12EB074241EB174112EB0C4277
:101C500051EB1C4148BF7047921841EB0101A3F1C1
:101C60000103704721B1826842F00102826003E003
:101C7000826822F001028260704721B1826842F4DA
:101C80008072826003E0826822F480728260704712
:101C9000014600208A6802F004020AB1012000E037
:101CA00000207047014600208A6802F008020AB14D
:101CB000012000E00020704730B5024600200023DC
:101CC00050680F4C20400D790C6844EA05242043ED
:101CD000506090680B4C2040D1E902542C434D7960
:101CE00044EA450420439060D06A20F470000C7CE4
:101CF000641EE4B2234340EA0350D06230BD0000CA
:101D0000FFFEF0FFFDF7F1FFF0B504460D460020A1
:101D10000021092D11DDE068A5F10A0606EB460752
:101D2000072606FA07F18843A5F10A0606EB4606E0
:101D300003FA06F10843E0600CE0206905EB450773
:101D4000072606FA07F1884305EB450603FA06F174
:101D500008432061072A0FDA606B561E06EB8607E0
:101D60001F2606FA07F18843561E06EB860605FA7B
:101D700006F10843606322E00D2A0FDA206BD61FBC
:101D800006EB86071F2606FA07F18843D61F06EBE7
:101D9000860605FA06F10843206310E0E06AA2F126
:101DA0000D0606EB86071F2606FA07F18843A2F107
:101DB0000D0606EB860605FA06F10843E062F0BD63
:101DC000816841F008018160704721B1826842F466
:101DD000A002826003E0826822F4A0028260704761
:101DE000816841F004018160704770B50024FA25D4
:101DF000002605E0012001F06DF90444701CC6B214
:101E0000AE42F7DBB4FBF5F4204670BD10B50446D6
:101E1000012C05D10102064800F0B2F9002406E0C9
:101E20002CB94FF48071024800F0A8F9012410BDCC
:101E30000008014021B1026842F00102026004E0A2
:101E400002684FF6FE731A400260704701684FF651
:101E5000FE72114001600021016041608160C1603B
:101E60004B49884208D14A490839496841F00F0175
:101E7000474A083A51608AE045491431884208D1FE
:101E800043490839496841F0F001414A083A516034
:101E90007DE03F492831884208D13D4908394968E9
:101EA00041F470613A4A083A516070E038493C3177
:101EB000884208D136490839496841F47041344AAA
:101EC000083A516063E032495031884208D13049C4
:101ED0000839496841F470212D4A083A516056E0AA
:101EE0002B496431884208D129490839496841F4AD
:101EF0007001274A083A516049E025497831884203
:101F000008D123490839496841F07061204A083AEC
:101F100051603CE01F49884206D1011F096841F029
:101F20000F01021F116032E01A491431884208D1B2
:101F30001849091F096841F0F001164A121F116083
:101F400025E014492831884208D11249091F09683F
:101F500041F470610F4A121F116018E00D493C31C5
:101F6000884208D10B49091F096841F47041094AA8
:101F7000121F11600BE007495031884207D1054913
:101F8000091F096841F47021024A121F116070474D
:101F9000080002400804024010B50022026847F61B
:101FA000F0739A430C6A8B6823430C6923434C6992
:101FB00023438C692343CC6923434C6A23438C6AB3
:101FC00023431A430260CB6843600B6883604B680D
:101FD000C36010BD2DE9F041024600250026002017
:101FE00000230024002791F803C00CF00F0591F89E
:101FF00003C00CF0100CBCF1000F03D091F802C02C
:102000004CEA050591F800C0BCF1000F31D014680E
:1020100000202BE04FF0010C0CFA00F3B1F800C0E7
:102020000CEA03069E4220D183004FF00F0C0CFAFD
:1020300003F7BC4305FA03FC4CEA040491F803C01F
:10204000BCF1280F06D14FF0010C0CFA00FCC2F8CD
:1020500014C00AE091F803C0BCF1480F05D14FF05D
:10206000010C0CFA00FCC2F810C0401C0828D1D3A7
:102070001460B1F800C0BCF1FF0F34DD54680020DB
:102080002EE000F1080C4FF0010808FA0CF3B1F84B
:1020900000C00CEA03069E4221D183004FF00F0CD2
:1020A0000CFA03F7BC4305FA03FC4CEA040491F86C
:1020B00003C0BCF1280F05D100F1080C08FA0CF898
:1020C000C2F8148091F803C0BCF1480F07D100F1A9
:1020D000080C4FF0010808FA0CF8C2F81080401CF8
:1020E0000828CED35460BDE8F0810000F0B50A4660
:1020F000002300240021002500F00046B6F1004F27
:1021000002D11D4EF16901E01B4E7168C0F3034519
:1021100083B200F44016B6F5401F08D121F070617B
:10212000154E766826F07066134F7E6012E000F45C
:102130008016B6F5801F06D1032606FA05F4A143E2
:1021400041F0706106E0460D360103FA06F6B14330
:1021500041F0706122B1460D360103FA06F63143B3
:1021600000F00046B6F1004F02D1034EF16101E0EC
:10217000014E7160F0BD00000000014041617047F8
:102180000161704770B5002100230F22C47804B3A9
:10219000154C246804F4E064C4F5E064210AC1F13C
:1021A0000403CA40447804FA03F1847814402143BC
:1021B00009010E4C0678A155047804F01F0501248E
:1021C000AC4005786D11AD0005F1E025C5F8004182
:1021D00009E0047804F01F050124AC40044D0678A2
:1021E000761145F8264070BD0CED00E000E400E0FB
:1021F00080E100E0024A0A400243024B1A60704745
:1022000080FFFF1F08ED00E001460020034A5068F0
:1022100020F4404008435060704700000010024026
:1022200029B1064A52690243044B5A6104E0034A49
:1022300052698243014B5A6170470000001002400E
:1022400029B1064AD2690243044BDA6104E0034A29
:10225000D2698243014BDA617047000000100240EE
:1022600029B1064A92690243044B9A6104E0034A89
:1022700092698243014B9A6170470000001002404E
:1022800030B500210022002400232D4D6D6805F09B
:102290000C0121B1042905D0082923D105E0294DDD
:1022A000056022E0274D05601FE0254D6D6805F4AF
:1022B0007012234D6D6805F48034022505EB9242BF
:1022C0001CB9214D554305600BE01D4D6D6805F4AB
:1022D00000351DB11C4D5543056002E0194D5543B5
:1022E000056002E0174D056000BF00BF144D6D682A
:1022F00005F0F0010909154D6B5C0568DD4045608E
:102300000F4D6D6805F4E061090A104D6B5C45687E
:10231000DD4085600A4D6D6805F46051C90A0B4DBA
:102320006B5C4568DD40C560054D6D6805F4404156
:10233000890B074D6B5CC568B5FBF3F5056130BDD6
:102340000010024000127A0000093D000000002049
:102350001000002010B50446012C04D101210448CE
:10236000FFF70EFF03E001210148FFF707FF10BD53
:102370000008014021B1028842F40052028004E0CA
:1023800002884DF6FF731A400280704721B102881F
:1023900042F04002028004E002884FF6BF731A4008
:1023A000028070470246002013890B400BB10120C8
:1023B00000E000207047014688897047818170479E
:1023C00010B50022028802F441520B884C88234346
:1023D0008C882343CC8823430C8923434C89234393
:1023E0008C892343CC8923431A430280838B4FF289
:1023F000FF74234083830B8A038210BD21B182883E
:1024000042F00402828004E082884FF6FB731A4097
:102410008280704710B500F001F810BD0CB50020A7
:10242000019000903348006840F4803031490860E2
:1024300000BF3048006800F4003000900198401C54
:102440000190009818B90198B0F5A06FF1D1294812
:10245000006800F4003010B10120009001E000207D
:1024600000900098012843D12348006840F01000F4
:10247000214908600846006820F00300086008460B
:10248000006840F0020008601A4840681949486036
:102490000846406848600846406840F480604860EC
:1024A0000846406820F47C1048600846406840F4C4
:1024B000E81048600846006840F08070086000BF7F
:1024C0000C48006800F000700028F9D00948406806
:1024D00020F00300074948600846406840F00200C9
:1024E000486000BF0348406800F00C000828F9D19C
:1024F0000CBD0000001002400020024010B513483F
:10250000006840F001001149086008464068104921
:1025100008400E494860084600680E4908400B49CB
:1025200008600846006820F480200860084640687B
:1025300020F4FE0048604FF41F008860FFF76AFF38
:102540004FF000600449086010BD00000010024018
:102550000000FFF8FFFFF6FE08ED00E010B50121D6
:10256000880700F04AF800B910BD0121880700F083
:1025700023F809480088401C80B207490880B0F55C
:102580007A7F06DB0020088004480088401C03494D
:10259000088000BFE8E700001400002016000020BB
:1025A00021B1028842F08002028004E002884FF6E6
:1025B0007F731A4002807047CA4302827047CA4341
:1025C0000282704721B1028842F00102028004E0D9
:1025D00002884FF6FE731A400280704731B1B0F89E
:1025E000442042F40042A0F8442005E0B0F8442022
:1025F000C2F30E02A0F84420704730B50246002016
:1026000000230024158A05EA0103958905EA0104DF
:1026100013B10CB1012000E0002030BD1AB1838954
:102620000B43838102E083898B43838170470000E1
:1026300070B5002400220023058C4FF6FE7635404D
:102640000584028C8388048B4FF68F752C40B51E51
:102650002C400D882C43751E2A400D892A434D8835
:102660002A43144DA8420BD0134DA84208D0134D55
:10267000A84205D0124DA84202D0124DA84213D153
:102680004FF6F7752A404D892A434FF6FB752A40CD
:102690008D882A434FF6FF652B404FF6FF552B40A0
:1026A0008D892B43CD892B4383800483CD888586F8
:1026B000028470BD002C0140003401400040014004
:1026C00000440140004801400A460021018B4FF6BA
:1026D000F7731940114301837047000070B500245F
:1026E00000220023058C4FF6EF7635400584028CDE
:1026F0008388048B48F6FF752C404FF6FF452C402D
:102700000D884FF6FF7606EA05252C434FF6DF7558
:102710002A400D8906EA05152A434D8806EA051563
:102720002A43154DA84202D0144DA8421DD14FF6A0
:102730007F752A404D894FF6FF7606EA05152A4334
:102740004FF6BF752A408D8806EA05152A434FF6D5
:10275000FF352B404FF2FF752B408D8906EA85052A
:102760002B43CD8906EA85052B4383800483CD88DE
:102770000587028470BD0000002C01400034014038
:102780000A460021018B4FF2FF7319404FF6FF7389
:1027900003EA0223194301837047000070B5002447
:1027A00000220023058C4FF6FF6635400584028C1D
:1027B0008388848B4FF68F752C404FF6FC752C4028
:1027C0000D882C434FF6FF552A400D894FF6FF76B2
:1027D00006EA05252A434D8806EA05252A43154DB4
:1027E000A84202D0144DA8421DD14FF2FF752A40D5
:1027F0004D894FF6FF7606EA05252A434FF6FF3549
:102800002A408D8806EA05252A434EF6FF752B409F
:102810004DF6FF752B408D8906EA05152B43CD89B2
:1028200006EA05152B4383808483CD88858702843F
:1028300070BD0000002C0140003401400A46002118
:10284000818B4FF6F773194011438183704781865E
:102850007047018770478187704781847047000007
:10286000002202881D4B98420ED01D4B98420BD07F
:10287000B0F1804F08D01B4B984205D01A4B9842BC
:1028800002D01A4B984204D14FF68F731A404B88EE
:102890001A43174B984207D0164B984204D04FF674
:1028A000FF431A40CB881A4302808B8883850B88AC
:1028B00003850A4B98420BD0094B984208D00E4B27
:1028C000984205D00D4B984202D00D4B984201D151
:1028D0000B7A03860123838270470000002C01409D
:1028E000003401400004004000080040000C00409B
:1028F000001000400014004000400140004401402E
:102900000048014010B540F225510A4800F05EF839
:1029100078B10948007838B1064800F013F9C4B21C
:10292000064801682046884740F22551014800F0DA
:1029300025F810BD00380140540000204C00002054
:1029400010B540F225510A4800F040F878B1094826
:10295000407838B1064800F0F5F8C4B2064841683E
:102960002046884740F22551014800F007F810BD85
:1029700000480040540000204C00002010B5002208
:10298000002340F66A14A14200D100BF0A120124BC
:102990009440A3B2DC43048010BD21B1828942F48B
:1029A0000052828104E082894DF6FF731A408281D1
:1029B000704702460020B1F5007F00D100BF1388A8
:1029C0000B400BB1012000E00020704770B50246BB
:1029D000002400230025002040F66A16B14200D1F1
:1029E00000BFC1F3421501F01F03012606FA03F3ED
:1029F000012D02D19689334006E0022D02D1168ABC
:102A0000334001E0968A33400C12012606FA04F4A2
:102A10001688344013B10CB1012000E0002070BDD5
:102A2000F0B50346002400260025002040F66A1772
:102A3000B94200D100BF1846C1F3421401F01F068D
:102A4000012707FA06F5012C01D10C3004E0022C15
:102A500001D1103000E014301AB107682F4307602D
:102A600002E00768AF430760F0BD00002DE9F047C2
:102A700086B005460E460024A24600BFA1460027A8
:102A8000B08900B100BF2F462C8A4CF6FF7004407D
:102A9000F08804432C82AC894EF6F3100440B088D1
:102AA00031890843718908430443AC81AC8A4FF6ED
:102AB000FF400440B0890443AC8201A8FFF7E0FB6B
:102AC0001F48874202D1DDF810A001E0DDF80CA01C
:102AD000A88900F4004040B10AEBCA0000EB0A10DC
:102AE00031684900B0FBF1F807E00AEBCA0000EBDF
:102AF0000A1031688900B0FBF1F86420B8FBF0F0EF
:102B000004012009642101FB1089A88900F4004018
:102B100040B1322000EBC900B0FBF1F000F007003B
:102B2000044308E0322000EB09106421B0FBF1F00F
:102B300000F00F0004432C8106B0BDE8F0870000D0
:102B40000038014001468888C0F308007047C1F38F
:102B5000080282807047490050EAC12018BF042053
:102B60004A0D18BF40F0010040F2FF72B2EB515F16
:102B700008BF40F00200012808BF05207047000090
:102B800070B504461C48007868BB01201A490870DB
:102B900023E0B4F57A7F02DD4FF47A7000E020463E
:102BA000064642F2283070434FF0E0214861002091
:102BB00088610120086100BF4FF0E020056905F041
:102BC000010018B105F480300028F5D000204FF046
:102BD000E02108618861A01B84B2002CD9D10020BB
:102BE0000549087007E001E000F07AFD201EA4F11D
:102BF00001018CB2F8D170BD6800002030380A287D
:102C000001D20120704700207047000000B591B04C
:102C100001210846FFF704FB4648FFF717F946482D
:102C20000690464807900020089010200990002048
:102C30000A9080200B9080000C9080000D90202046
:102C40000E9000020F900020109006A93948FFF75F
:102C5000A3F901213748FFF7EDF801210420FFF720
:102C6000FFFA0220ADF8140000208DF8170005A926
:102C70003348FFF7AFF901210820FFF7F1FA0220EE
:102C8000ADF8140000208DF8170005A92D48FFF7B6
:102C9000A1F901214802FFF7E3FA0020009001208A
:102CA0008DF804008DF805004FF46020029000209C
:102CB000039002208DF8100069461F484C38FEF73B
:102CC000FBFF4FF44040FFF79FFA07230122114614
:102CD00019484C38FFF718F8072302220921164833
:102CE0004C38FFF711F8012113484C38FEF7C5FFA7
:102CF000012111484C38FEF7B5FF0F484C38FFF75B
:102D00005FF800BF0C484C38FEF7CCFF0028F9D123
:102D100009484C38FFF764F800BF07484C38FEF705
:102D2000B7FF0028F9D1012103484C38FFF74DF8CF
:102D300011B000BD080002404C240140E800002012
:102D400000080140000C0140F8B500245948006813
:102D5000002875D0002057490860574A57A1012024
:102D600001F072F8002504E05348405D5949485588
:102D70006D1C5148405D3A28F6D100276E1C06E0D4
:102D80004D48825D38467F1C53490A54761C4A4898
:102D9000805D2E28F4D1504800904E4A4FA101206A
:102DA00001F052F84C4A50A1012001F04DF80A22DE
:102DB00069464948FDF778FA044622464DA10120AC
:102DC00001F042F8434950A0FDF7CEFA90B9012C2A
:102DD00007D1002000F0F8F94CA1012001F034F8EF
:102DE00006E0002000F0E0F94DA1012001F02CF8F0
:102DF00000F0CEF837494FA0FDF7B6FA68B9642C59
:102E000031DA002C2FDDA2B20121002000F0ECFA13
:102E10004AA1012001F018F825E02E494BA0FDF74A
:102E2000A3FA70B9642C1EDA002C1CDDA2B20121B9
:102E3000084600F0D9FA47A1012001F005F812E098
:102E400036E0244947A0FDF78FFA60B9642C0ADA0E
:102E5000002C08DDA2B20121022000F0C5FA43A136
:102E6000012000F0F1FF1B4944A0FDF77DFAD8B91D
:102E700040F21A40844207DAB4F5E17F04DDA1B2E2
:102E8000002000F0B1FB0FE012493EA0FDF76CFA04
:102E900050B940F21A40844202DBB4F5E17F03DD11
:102EA000A1B2012000F0A0FB01203849086000BF5A
:102EB000F8BD000094000020A8050020434F4D50AD
:102EC0004C45544520434F4D4D414E443A202573C7
:102ED0000A0000000C060020160600204E414D4559
:102EE0003A2025730A00000056414C3A2025730A07
:102EF000000000005468652076616C756520697378
:102F00003A20256C640A00006C6564005455524EEA
:102F10004544204C45442031204F4E0A000000001B
:102F20005455524E4544204C45442031204F46468E
:102F30000A0000006D6F746F723000006D6F746F67
:102F40007230206973206F6E200A00006D6F746FFD
:102F5000723100006D6F746F7231206973206F6E73
:102F6000200A00006D6F746F723200006D6F746F15
:102F70007232206973206F6E200A000073657276CA
:102F80006F300000736572766F3100009000002092
:102F90000C480068A8B100210A4A1160002003E033
:102FA0000021094A1154401C6428F9DB002005E087
:102FB0000021064A1154064A1154401C0A28F7DB26
:102FC00000BF704790000020A80500200C060020DC
:102FD0001606002008B501211020FFF741F9032053
:102FE0008DF8020048208DF803004FF46040ADF8E2
:102FF000000069461548FEF7EDFF002022E0144965
:1030000051F8201000EB8002124B43F822101249B5
:1030100031F8101000EB800203EB82029180012155
:1030200000EB800203EB82029171002100EB800231
:1030300003EB8202D17100EB800203EB820211727A
:10304000411CC8B20328DADB08BD000000100140B3
:1030500028000020A80000200E400008002001E009
:1030600000BF401C0428FBDB70472DE9F0419EB0F7
:10307000074678216846FDF74FF9002004E057F82D
:1030800020104DF82010401C1E28F8DB022513E00C
:103090005DF825606C1E05E05DF82410601C4DF89D
:1030A0002010641E002C03DD5DF82400B042F3DC28
:1030B000601C4DF820606D1C1E2DE9DBDDE90E0162
:1030C00000EB010808EBD871481000F03BFF1EB080
:1030D000BDE8F0810146024850F821007047000029
:1030E000E40000200548008800EB4001C1EBC0105F
:1030F0000349098801EBC00070470000160000205A
:103100001400002008B501210C20FFF7A9F80320C6
:103110008DF8020028208DF803004FF4C050ADF860
:10312000000069460548FEF755FF4FF4F070ADF812
:10313000000069460248FEF74DFF08BD0008014047
:10314000000C014008B501210D20FFF789F801218D
:103150001248FEF7CBFF03208DF8020010208DF8F7
:1031600003001820ADF8000069460D48FEF732FF55
:103170004FF40040ADF8000069460A48FEF72AFF08
:103180004FF400410748FEF7F9FF08210448FEF715
:10319000F5FF10210248FEF7F1FF08BD00023000E4
:1031A000000C01400008014010B50446044A32F802
:1031B0001410044A52F82400FEF7E0FF10BD00008E
:1031C000084000081800002010B50446044A32F8F0
:1031D0001410044A52F82400FEF7D2FF10BD00007C
:1031E000084000081800002008B54FF48070ADF8C2
:1031F000000010208DF8030003208DF802006946BE
:103200000E48FEF7E7FE0120ADF8000010208DF813
:10321000030002208DF8020069460848FEF7DAFE36
:103220000120ADF8000010208DF8030002208DF879
:10323000020069460248FEF7CDFE08BD00080140C5
:10324000000C014010B50120FFF784F8FFF706FFDE
:103250000120FEF7DBFD0020FFF77CF8FEF7C5FD3F
:1032600020490860FFF7FAFE0020FEF7CFFD012499
:1032700010E00120FEF7CAFDFFF7F0FEFEF7B5FDF6
:10328000184941F824000020FEF7C0FDFFF7E6FED4
:10329000601CC4B2802CECDB0120FEF7B7FDFFF709
:1032A000DDFE0020FEF7B2FDFFF7D8FE002016E09D
:1032B0000C4951F8201001EB8101890140F6FF72A1
:1032C000B1FBF2F1074A42F82010114651F82010E4
:1032D000A02902D39F2142F82010411CC8B28028A7
:1032E000E6DB10BD28010020FFF72CFFFFF70AFFE7
:1032F00000F08EFCFFF778FFFFF788FCFFF76AFE0F
:10330000002242F210718F2000F080F94FF6FF7218
:103310000021012000F036FA4FF4E131012000F0E5
:10332000ADFC2B49012000F039FD2AA1012000F05D
:103330008BFD002242F210718F2000F083F80025EF
:1033400045E005220121002000F04EF8FFF7CAFEFB
:10335000401B322839D3FFF7C5FE0546002413E091
:103360001F4A52F82420C2F19F02D1B2E0B20022DB
:1033700000F02AFB1B4A125DC2F19F02D1B2E0B2FB
:10338000002200F021FB641C802CE9DBFFF75AFFD0
:1033900000F0DAF8002415E0114A52F82420C2F1B6
:1033A0009F02D1B2E0B24FF4784200F00DFB0D4A1B
:1033B000125DC2F19F02D1B2E0B24FF6FF7200F08F
:1033C00003FB641C802CE7DB00BFFFF7BDFCB8E704
:1033D000C13D0008696E697469616C697A650A00AB
:1033E000280100202805002070B504460D46164629
:1033F00045B1114A32F81410104A52F82400FEF771
:10340000BFFE07E00C4A32F814100C4A52F82400B0
:10341000FEF7B4FE1CB931460948FFF718FA012C33
:1034200003D131460648FFF714FA022C03D1314686
:103430000348FFF710FA70BD38400008580000201C
:10344000002C014070B588B006460C461546012197
:1034500040F61900FEF704FF10208DF81F0003202E
:103460008DF81E004FF48050ADF81C0007A93348BA
:10347000FEF7B0FD4FF4C050ADF81C0007A930486E
:10348000FEF7A8FD18208DF81F0003208DF81E0000
:103490004FF46040ADF81C0007A92848FEF79AFDDC
:1034A0000020ADF81200ADF816008DF81800ADF848
:1034B0001060ADF8144004A92248FFF7D1F90020AC
:1034C000ADF80800ADF80A006020ADF8000000205B
:1034D000ADF80C00ADF80E000120ADF8020004209C
:1034E000ADF80400ADF8065069461648FFF7A0F89D
:1034F00001211448FFF7E8F869461248FFF7EEF893
:1035000001211048FFF73CF969460E48FFF746F9DC
:1035100001210C48FFF792F901210A48FFF740F812
:1035200001210848FFF74EF800210648FFF795F9FA
:1035300001210448FFF752F808B070BD000C0140AB
:1035400000100140002C01402DE9F0419EB078218F
:103550006846FCF7E1FE0025002005E0204951F80F
:1035600020104DF82010401C1E28F7DB00260027F5
:10357000002408E06846FFF778FD804600F0C2FCB2
:1035800018490855641C0F2CF4DD1E2416E014485D
:1035900050F824004DF825006D1C1E2095FBF0F11D
:1035A00000FB11556846FFF760FD804600F0AAFC5D
:1035B000C1B2A4F10F000B4A1154641C802CE6DB4D
:1035C000622408E06846FFF750FD804600F09AFC50
:1035D00004490855641C802CF4DB1EB0BDE8F08162
:1035E000280100202805002070B504460D461CB9AE
:1035F00029460548FFF72BF9012C03D1294602483B
:10360000FFF727F970BD00000004004070B588B0D6
:1036100006460C46154601210220FEF711FE012147
:103620001120FEF71DFE18208DF81F0003208DF8D5
:103630001E00C020ADF81C0007A92648FEF7CAFCF2
:1036400001212548FEF752FD0020ADF81200ADF82B
:1036500016008DF81800ADF81060ADF8144004A9FC
:103660001E48FFF7FDF80020ADF80800ADF80A008D
:103670006020ADF800000020ADF80C00ADF80E00A1
:103680000120ADF802000420ADF80400ADF80650AA
:1036900069461248FEF7CCFF01211048FFF714F8E5
:1036A00069460E48FFF71AF801210C48FFF768F841
:1036B00001210A48FEF774FF01210848FEF782FF46
:1036C00000210648FFF7C9F801210448FEF786FFEC
:1036D00008B070BD00100140000C1A00000400404A
:1036E00010B5002400BF03E0FCF7A4FD601CC4B2C9
:1036F000642CF9DB10BD10B5002332B1012A05D0CE
:10370000022A0AD0032A18D110E016E00B780478B8
:103710000C70C3F17F0404700FE00C78C4F19F04B7
:103720000C700478C4F17F04047006E00B78047810
:10373000C4F19F040C70037000BF00BF10BD0000F7
:1037400070B59F237F220021084600F06DF92C20E0
:1037500000F00EFA002410E000250AE0084909886C
:10376000081200F02DFA0649087800F029FA681CC2
:10377000C5B2A02DF2DB601CC4B2802CECDB70BDA6
:103780006E00002070B506460C46154600F07AF92A
:1037900000F038F9112000F0EBF97820FFF7F0F98C
:1037A000B12000F0E5F9012000F00AFA2C2000F029
:1037B00007FA2D2000F004FAB22000F0D9F9012018
:1037C00000F0FEF92C2000F0FBF92D2000F0F8F9B4
:1037D000B32000F0CDF9012000F0F2F92C2000F028
:1037E000EFF92D2000F0ECF9012000F0E9F92C2090
:1037F00000F0E6F92D2000F0E3F9B42000F0B8F96C
:10380000072000F0DDF9C02000F0B2F9A22000F09E
:10381000D7F9022000F0D4F9842000F0D1F9C120BA
:1038200000F0A6F9C52000F0CBF9C22000F0A0F905
:103830000A2000F0C5F9002000F0C2F9C32000F012
:1038400097F98A2000F0BCF92A2000F0B9F9C420C9
:1038500000F08EF98A2000F0B3F9EE2000F0B0F904
:10386000C52000F085F90E2000F0AAF9362000F0FE
:103870007FF9C02000F0A4F9E02000F079F90F20D2
:1038800000F09EF91A2000F09BF90F2000F098F943
:10389000182000F095F92F2000F092F9282000F070
:1038A0008FF9202000F08CF9222000F089F91F20E8
:1038B00000F086F91B2000F083F9232000F080F946
:1038C000372000F07DF9002000F07AF9072000F0A1
:1038D00077F9022000F074F9102000F071F9E1206E
:1038E00000F046F90F2000F06BF91B2000F068F99A
:1038F0000F2000F065F9172000F062F9332000F086
:103900005FF92C2000F05CF9292000F059F92E20F5
:1039100000F056F9302000F053F9302000F050F953
:10392000392000F04DF93F2000F04AF9002000F066
:1039300047F9072000F044F9032000F041F9102076
:1039400000F03EF92A2000F013F9002000F038F9C9
:10395000002000F035F9002000F032F97F2000F05F
:103960002FF92B2000F004F9002000F029F90020A5
:1039700000F026F9002000F023F99F2000F020F944
:10398000F02000F0F5F8012000F01AF9F62000F020
:10399000EFF8002000F014F93A2000F0E9F80520D3
:1039A00000F00EF9292000F0E3F8044806700448FE
:1039B000048004480580FFF7C3FE70BD6C00002042
:1039C0006E0000207000002037B514460C480278C5
:1039D00001A96846FFF78FFE9DF804305B1C9DF837
:1039E0000020521C9DF804109DF8000000F01CF807
:1039F000201200F0E5F8E0B200F0E2F83EBD000071
:103A00006C00002010B504210648FEF7B7FB6420C7
:103A1000FFF7B6F804210348FEF7B2FB3220FFF7A8
:103A2000AFF810BD000801402DE9F04104460D46F5
:103A300016461F462A2000F09BF8002000F0C0F830
:103A4000A11CC8B200F0BCF8002000F0B9F8B11C0D
:103A5000C8B200F0B5F82B2000F08AF8002000F082
:103A6000AFF8691CC8B200F0ABF8002000F0A8F86D
:103A7000791CC8B200F0A4F82C2000F079F8BDE859
:103A8000F081000000B587B001210420FEF7E8FBBB
:103A900001210846FEF7E4FB01210803FEF7E0FBE5
:103AA00001213048FEF722FB0420ADF81800102059
:103AB0008DF81B0001208DF81A0006A92A48FEF790
:103AC00089FA0820ADF8180010208DF81B0001209D
:103AD0008DF81A0006A92448FEF77CFAE020ADF81C
:103AE000180018208DF81B0003208DF81A0006A975
:103AF0001D48FEF76FFA1020ADF818008DF81B0076
:103B000003208DF81A0006A91748FEF763FA002073
:103B1000ADF804004FF48270ADF806000020ADF857
:103B200008000220ADF80A000120ADF80C004002A8
:103B3000ADF80E000820ADF810000020ADF812001E
:103B400001A90A48FEF73CFC01210848FEF71EFCCB
:103B500000210648FEF70EFC00210448FEF74EFC4B
:103B600007B000BD000230000008014000300140F5
:103B700010B5044610211048FEF700FB08210E483E
:103B8000FEF7FCFA00BF02210C48FEF70BFC0028F0
:103B9000F9D021460948FEF711FC00BF0121074872
:103BA000FEF700FC0028F9D00448FEF704FC1021C1
:103BB0000148FEF7E5FA10BD000801400030014061
:103BC00010B5044610211048FEF7D8FA08210E4817
:103BD000FEF7D6FA00BF02210C48FEF7E3FB0028EF
:103BE000F9D021460948FEF7E9FB00BF012107484B
:103BF000FEF7D8FB0028F9D00448FEF7DCFB1021C3
:103C00000148FEF7BDFA10BD000801400030014038
:103C10001FB501210846FEF713FB4FF47A70ADF88B
:103C200008004720ADF8040001A94FF08040FEF7DE
:103C300017FE01218807FEF7C2FC012211469007FA
:103C4000FEF7ECFC01218807FEF7BCFC00208DF894
:103C500001008DF8020001208DF803001C208DF872
:103C600000006846FEF78EFA0020024908800249EB
:103C700008801FBD160000201400002030B585B05C
:103C800004460D462C4951F82410094341F0010027
:103C90000121FEF7E5FA34B9284951F82400012141
:103CA000FEF7DEFA05E0254951F824000121FEF770
:103CB000C7FA18208DF81300214830F81400ADF829
:103CC000100003208DF812001E4951F8240004A9A9
:103CD000FEF780F904208DF813001B4830F814001B
:103CE000ADF81000194951F8240004A9FEF772F943
:103CF00000950020ADF80400ADF80600ADF808000E
:103D0000ADF80C000C20ADF80A00114951F8240060
:103D10006946FEF7ABFE0E4951F82400012240F23D
:103D20002551FEF77DFE0A4951F824000121FEF7D6
:103D300034FE05B030BD00001C40000824400008DF
:103D40002C4000083C0000203040000844000020C7
:103D50003400002038B5044600214FF00060FEF723
:103D600049FA0C4810F814008DF8000001208DF875
:103D700001008DF802008DF803006846FEF702FA94
:103D8000054951F82400012240F22551FEF748FE72
:103D900038BD0000344000083400002070B50446EF
:103DA0000D46054840F82450012004490855204696
:103DB000FFF7D0FF70BD00004C0000205400002031
:103DC00010B50446FFF78EF9124908600020124929
:103DD0000860124801680068401C104A10601048D2
:103DE000445402460FA1012000F02EF82E2C05D1DC
:103DF00001200F4908600020084908600D4800783C
:103E0000A04204D022460CA1012000F01DF8094870
:103E1000047010BDA00000209C000020980000202D
:103E2000A80500204255464645523A2025730A000F
:103E300094000020A40000207265636965766564C3
:103E40003A2025630A0000000FB430B5C1B0054622
:103E500046A840906846409A4599FCF713FA00201E
:103E600040906C4604E014F8011B284600F008F866
:103E700020780028F7D141B030BC5DF814FB000079
:103E800070B504460D4600BF074951F82400402193
:103E9000FEF78FFD0028F7D0034951F8240029468A
:103EA000FEF755FE70BD00003400002010B500295B
:103EB0000AD00878002807D005487844FCF754FA5F
:103EC000002801D0002010BD0248784410BD000039
:103ED000623500005A35000010B500290AD0087874
:103EE000002807D005487844FCF73EFA002801D0A6
:103EF000002010BD0248784410BD00004636000086
:103F00003E360000C10DD1F19E0206DB4FEA0023D0
:103F100043F0004323FA02F07047004207D54FEA0E
:103F20004001B1F1FE4F02D24FF00000704710B5D2
:103F300000F020F849922480002070476FEA2000AA
:103F40007047000010F0004148BF4042B0FA80F3D3
:103F500010FA03F2C3F19D030BD051EAC35101EBF8
:103F60001220530638BF704700F1010008BF20F04F
:103F7000010070470EF1020E2EF0030E5EF8044BA6
:103F8000244204D44FEA4102B2F17F4F11D84FEAE4
:103F90004003B3F17F4F0CD80ED14FEAD07CB2F181
:103FA0007F4F0CEB4C0C0CF1020C08BF4CEBD17C9E
:103FB00004E04FF0080C01E04FEAD17C0CEB4C031D
:103FC00024FA03F404F00704B4F1040C06D20EEB57
:103FD000840CBDE810404CF0010C6047DFE80CF0A9
:103FE000070802024FF00040A0F5800010BD08460F
:103FF000420018BFD2F1807288BF00F0004010BDAF
:10400000FCF781BEFCF7B6BF00800800100000205E
:1040100000400080040000000800000004000000D0
:10402000080000000040000000000400000200043E
:104030000004000825002700001000080010000000
:1040400000000000000000000000000000808080F0
:104050008080808000800000009090900000000030
:1040600000000000004848FC484848FC4848000060
:10407000002070A8A0603028A87020000060926422
:104080000810204C920C00000040A0A04040A890D6
:1040900090680000008080800000000000000000A8
:1040A0000040808080808080808080400080404010
:1040B000404040404040408000A040A00000000040
:1040C00000000000000000002020F8202000000078
:1040D0000000000000000000004080000000000020
:1040E0000000C00000000000000000000000000010
:1040F0000080000000101010202040408080000050
:104100000070888888888888887000000020E020F7
:104110002020202020200000007088080810204067
:1041200080F80000007088080830080888700000D7
:1041300000103030505090F81010000000F88080CF
:10414000F0880808887000000070888080F08888F7
:104150008870000000F80810102020404040000047
:10416000007088888870888888700000007088884F
:1041700088780808887000000000000080000000B7
:1041800000800000000000004000000000408000AF
:1041900000000010204080402010000000000000BF
:1041A00000F800F80000000000000080402010200F
:1041B00040800000007088080810202000200000C7
:1041C00000001E00618040808E40924092408DC071
:1041D000400060001F000000001010282844447CAC
:1041E0008282000000F0888888F0888888F00000CB
:1041F00000788480808080808478000000F088844B
:104200008484848488F0000000F8808080F08080BE
:1042100080F8000000F8808080F0808080800000BE
:1042200000788480809C84848C7400000084848462
:1042300084FC84848484000000808080808080806E
:10424000808000000010101010101090906000008E
:10425000008890A0C0C0A09088840000008080806A
:104260008080808080F80000008282C6C6AAAA9260
:10427000928200000084C4C4A4A4948C8C840000A6
:1042800000788484848484848478000000F88484A2
:1042900084F8808080800000007884848484849402
:1042A0008C78040000F8848484F88484848400007A
:1042B00000708880807008088870000000F8202056
:1042C0002020202020200000008484848484848492
:1042D00084780000008282444444282810100000A2
:1042E0000000802080204440444044402A802A80AE
:1042F00011001100000000000082824428102844B0
:1043000082820000008282442810101010100000E9
:1043100000FE02040810204080FE000000C08080E3
:1043200080808080808080C000808080404020200D
:104330001010000000C0404040404040404040C09D
:104340002050880000000000000000000000000075
:1043500000000000000000FC0080400000000000A1
:1043600000000000000000007008788888780000D5
:1043700000808080F088888888F0000000000000BD
:104380007088808088700000000808087888888815
:1043900088780000000000007088F88088700000B5
:1043A00000408080C080808080800000000000008D
:1043B00078888888887808F000808080B0C88888ED
:1043C000888800000080000080808080808000005D
:1043D00000800000808080808080808000808080DD
:1043E00090A0C0A0908800000080808080808080A5
:1043F0008080000000000000EC92929292920000F7
:1044000000000000B0C88888888800000000000014
:10441000708888888870000000000000F088888814
:1044200088F08080000000007888888888780808F4
:1044300000000000C080808080800000000000003C
:10444000609040209060000000008080C0808080EC
:10445000804000000000000088888888986800007C
:10446000000000008888505020200000000000005C
:104470009292AAAA4444000000000000909060605C
:10448000909000000000000048484848302020C0BC
:1044900000000000F010204080F00000204040406C
:1044A00040804040404020000080808080808080AC
:1044B000808080008040404040204040404080005C
:1044C00000006498000000000000000002000000EE
:1044D00001000C0004001800060024000500300054
:1044E00007003C0005004800010054000200600085
:1044F00002006C00030078000500840002009000B8
:1045000002009C000100A8000400B4000500C000E7
:104510000300CC000500D8000500E4000500F00011
:104520000500FC000500080105001401050020013C
:1045300005002C0101003801020044010400500173
:1045400005005C0104006801050074010A00800197
:10455000070098010500A4010600B0010600BC0197
:104560000500C8010500D4010600E0010600EC01C9
:104570000100F801040004020600100205001C02FC
:1045800007002802060034020600400206004C0222
:1045900006005802060064020500700205007C0255
:1045A00006008802070094020B00A0020700B80270
:1045B0000700C4020700D0020200DC020400E80287
:1045C0000200F4020500000306000C0302001803B9
:1045D000050024030500300305003C0305004803E3
:1045E000050054030200600305006C030500780316
:1045F000010084030100900305009C030100A8034F
:104600000700B4030500C0030500CC030500D80370
:104610000500E4030200F0030400FC0302000804A8
:10462000050014040500200407002C0404003804CD
:10463000050044040400500403005C040100680405
:1046400003007404060080040C207E00CC440008A3
:1046500040400008000000000000000000000000D2
:1046600000000000000000000000000000C0C0C00A
:10467000C0C0C0C0C0C0C0C0C00000C0C0000000FA
:1046800000000000B8B050505000000000000000D2
:104690000000000000000000000000000000CC004E
:1046A000CC018C019803187FFF7FFE0670FFFCFF92
:1046B000FC18C019C03980330063000000000000FE
:1046C0000000000000000018187FFFE0C0C0603844
:1046D0001E1A1B1B1B1B1FFEFC18180000000000ED
:1046E00000003C0C7E18E718C330C370E7607EC042
:1046F0003DC001BC037E03E706C30EC30CE7187E72
:10470000183C000000000000000000000000000055
:104710000F003F003000600060006000300061FC6E
:10472000C1FCC030C030C030E07070E03FC00F80CE
:10473000000000000000000000000000C0C0404079
:104740004000000000000000000000000000000029
:104750000000001C30306060C0C0C0C0C0C06060DD
:1047600030381C00000000000000E0703018180C09
:104770000C0C0C0C0C18183060C0800000000000FD
:10478000001818D33C1CF75A180000000000000065
:104790000000000000000000000000000000000019
:1047A000000000000400040004000400FFF0FFF01B
:1047B00006000600060006000600000000000000DB
:1047C00000000000000000000000000000000000E9
:1047D00000000000C0C080808000000000000000D9
:1047E0000000000000F8F8000000000000000000D9
:1047F00000000000000000000000000000000000B9
:104800000000C0C000000000000006000C001C00FA
:104810001800380030006000E000C001C0018003D3
:1048200000030006000E000C001800180030007095
:10483000006000C0000000000000001F003F807109
:10484000C0E0E0C060C060C060C060C060C060C068
:1048500060C060E0E071C03F801F00000000000009
:1048600000000000000000040C0C1C3C7CEC4C0C14
:104870000C0C0C0C0C0C0C000000000000000000E4
:104880001F003F8071C0E0E0C060C060006000E0D9
:1048900001C0038007000E001C0018003FE07FE00D
:1048A00000000000000000000000000000000F00F9
:1048B0001F8039C030C000C000C001C0006000309F
:1048C0000030C030C030E07070E03FC00F800000AA
:1048D0000000000000000000000000000040004058
:1048E00000C001C003C007C00EC01CC018C030C04B
:1048F00060C0E0C0FFF87FF800C000C0000000000A
:10490000000000000000000000003F803F803000F9
:10491000300030003F003F8041C000E00060006098
:10492000006000E0E1C07F801E0000000000000089
:1049300000000000000000000300060004000C005E
:1049400018003F803FC070E0E070C030C030C03021
:10495000E07070E03FC01F80000000000000000019
:10496000000000000000FFC0FFC0018001800300C4
:1049700003000700060006000C000C0018001800D9
:1049800018003000300000000000000000000000AF
:10499000000000001F003F8071C060C060C060C0A8
:1049A000318060C0C060C060C060C060E0E071C0C5
:1049B0003F801F0000000000000000000000000019
:1049C00000001F803FC070E0E070C030C030C030D9
:1049D000E07070E03FC01FC00380030007000600C6
:1049E0000C000000000000000000000000000000BB
:1049F0000000000000000000C0C00000C0C00000B7
:104A00000000000000000000000000000000006046
:104A10006000006060404080000000000000000076
:104A20000000020F1C78F0E0781C0F02000000006C
:104A30000000000000000000000000FFFF0000FF79
:104A4000FF00000000000000000000000000000067
:104A5000C0E0781C0F071E38F0C000000000000006
:104A600000F8FE0E03030303073E3C303000003025
:104A70003000000000000000000007E01FF03838A0
:104A8000700C600EC3B6CE66CC66D866D844F9CC3E
:104A900079587E763C1C1FF807E0000000000000FB
:104AA00000000000000000000100030003800380FC
:104AB00007C006C00CE00C601C7018301FF83FF8EF
:104AC000301C600C600CC0060000000000000000FC
:104AD000000000000000FC00FF00C380C180C18016
:104AE000C180C180C700C180C0C0C0C0C0C0C0C03C
:104AF000C380FF80FE0000000000000000000000F6
:104B00000000000007F01FF03C0070006000E000B3
:104B1000C000C000C000C000E000600070003C00A9
:104B20000FF007F00000000000000000000000008F
:104B30000000FE00FF80C1E0C060C030C038C01877
:104B4000C018C018C018C038C030C070C1E0FFC065
:104B5000FF00000000000000000000000000FFFF58
:104B6000C0C0C0C0C0FCFCC0C0C0C0C0FFFF0000CF
:104B700000000000000000FF80FF80C000C000C0F7
:104B800000C000C000FE00FE00C000C000C000C0A9
:104B900000C000C000C000000000000000000000D5
:104BA000000000000007E01FE0380070006000C057
:104BB00000C000C1F8C1F8C018E018601870183CB7
:104BC000181FF807E00000000000000000000000CF
:104BD000000000C060C060C060C060C060C060C055
:104BE00060FFE0FFE0C060C060C060C060C060C047
:104BF00060C060000000000000000000000000C075
:104C0000C0C0C0C0C0C0C0C0C0C0C0C0C0C0C00064
:104C10000000000000000C0C0C0C0C0C0C0C0C0C1C
:104C20000C0C0C1CF8F0000000000000000000C09C
:104C3000E0C0C0C180C300C600CC00D800FC00C7E3
:104C400000C180C0C0C060C060C020C030C03000A3
:104C50000000000000000000000000C0C0C0C0C094
:104C6000C0C0C0C0C0C0C0C0C0FEFE000000000088
:104C70000000000000001002001806001806001CCA
:104C80000E001C0E003C0F00361B00361B00373395
:104C90000033330063338061E18061E18061C18072
:104CA00060C180C0C0C00000000000000000000023
:104CB0000000000000000000008030C030E030F054
:104CC00030F830DC30CC30C630C730C3B0C1F0C0B3
:104CD000F0C070C030C010C0100000000000000024
:104CE00000000000000000000007E0001FF8003C8A
:104CF0001E00700700600300E00380C00180C00157
:104D000080C00180C00180E0038060030070070064
:104D10003C1E001FF80007E000000000000000003B
:104D2000000000000000000000000000FE00FF0086
:104D3000C380C0C0C0C0C0C0C0C0C380FF00FE00F0
:104D4000C000C000C000C000C000C00000000000E3
:104D50000000000000000000000007E01FF83C3CDD
:104D6000700E6006C007C003C003C003C0C3E0E309
:104D70006076703C3C1C1FF807E400020000000055
:104D80000000000000000000FC00FF00C700C3801E
:104D9000C180C180C180C300DE00C380C0C0C040EC
:104DA000C060C020C020C030000000000000000033
:104DB000000000003C7CE0C0C060380C0603030328
:104DC0000306FEF8000000000000000000FFC0FF26
:104DD000C00C000C000C000C000C000C000C000CB3
:104DE000000C000C000C000C000C000C000000007B
:104DF0000000000000000000000000C060C060C0B3
:104E000060C060C060C060C060C060C060C060C0A2
:104E100060C060E0E071C03F801F00000000000043
:104E2000000000000000000000E006600E700C3082
:104E30001C381818181C300C300E60066007E00390
:104E4000C003C001800180000000000000000000DD
:104E5000000000000000000000E1800C618018707C
:104E6000C01830C0301860301860600C30600C30F2
:104E7000C00638C00679C0036D8003ED8001C7000D
:104E800001C7000082000082000000000000000056
:104E900000000000000000000000000060603060C2
:104EA00038C019C00D800F800700070007000D8073
:104EB0001D8018C038E030607030E038000000001D
:104EC00000000000000000000000E01C70383030DE
:104ED00018601CE00CC0078007800300030003007B
:104EE00003000300030003000300000000000000B3
:104EF00000000000000000003FE03FE000C0018033
:104F000001800300070006000E000C0018001800C6
:104F1000300070007FF0FFF0000000000000000093
:104F2000000000F0F0C0C0C0C0C0C0C0C0C0C0C061
:104F3000C0C0C0C0C0C0C0F0F0C000600070003091
:104F400000380018000C000E0006000700030001E6
:104F50008001C000C000E000600030003000180098
:104F60001C000C0006000000F8F818181818181893
:104F7000181818181818181818181818F8F8000021
:104F80002070D88C0000000000000000000000002D
:104F90000000000000000000000000000000000011
:104FA0000000000000000000000000000000000001
:104FB0000000000000000000000000FFFEFFFE00F7
:104FC000000000000000E0300800000000000000C9
:104FD00000000000000000000000000000000000D1
:104FE00000000000000000001F003FC070F0E06003
:104FF000C060C060C060E06070E03FE01E60000024
:10500000000000000000000000000000C000C00020
:10501000C000C000C000DF00FFC0E0E0C070C030D2
:10502000C030C030C070F0E07FC01F8000000000C2
:105030000000000000000000000000000000000070
:10504000000000001F803F807000E000C000C00032
:10505000C000E00070003F801F80000000000000E2
:1050600000000000000000000060006000600060C0
:1050700000601F603FE070E0E060C060C060C06042
:10508000E06070E03FC00F00000000000000000082
:105090000000000000000000000000000000000010
:1050A0000F803FC07060C030FFF0FFF0C000E00034
:1050B00070003FC01FC000000000000000000000A2
:1050C00000000C1C383030FCFC30303030303030D8
:1050D0003030000000000000000000000000000070
:1050E00000000000000F003FC070F0E060C060C032
:1050F00060C060E06070E03FE01E60006000E001C2
:10510000C03FC03F0000000000C000C000C000C0A1
:1051100000C000DE00FF80E1C0C0C0C0C0C0C0C091
:10512000C0C0C0C0C0C0C0C0C000000000000000BF
:10513000000000000000C0C00000C0C0C0C0C0C06F
:10514000C0C0C0C0C000000000000000001818006F
:10515000001818181818181818181818181838F0EF
:10516000E000000000C000C000C000C000C000C1DE
:1051700080C300C600CC00DE00E700C180C080C054
:1051800080C0C0C0C000000000000000000000009F
:1051900000C0C0C0C0C0C0C0C0C0C0C0C0C0C0C0CF
:1051A000C00000000000000000000000000000003F
:1051B00000000000000000000000001E1E007F7FB5
:1051C00080E1E180C0C0C0C0C0C0C0C0C0C0C0C01D
:1051D000C0C0C0C0C0C0C0C0C0C0C0C000000000CF
:1051E00000000000000000000000000000000000BF
:1051F0000000000000000000001E007F80E180C071
:10520000C0C0C0C0C0C0C0C0C0C0C0C0C0C0C0005E
:10521000000000000000000000000000000000008E
:10522000000000000000001F803FC070E0E070C080
:1052300030C030C030E07070E03FC01F00000000A0
:10524000000000000000000000000000000000005E
:1052500000000000001F003FC0E0E0C070C030C090
:1052600030C030C070E0E0FFC0DF00C000C000C050
:1052700000C000C0000000000000000000000000AE
:105280000000000F003FC070F0E060C060C060C070
:1052900060E06070E03FE01F600060006000600060
:1052A000600060000000000000001878E0C0C0C08E
:1052B000C0C0C0C0C000000000000000000000002E
:1052C000007CFCC0C06018060606FEF80000000066
:1052D00000000000000020207CFC606060606060D6
:1052E000606060000000000000000000000000009E
:1052F000000000000000C0C0C0C0C0C0C0C0C0C02E
:10530000C0C0C0C0C0C061C07F801F0000000000DE
:10531000000000000000000000000000000000008D
:1053200000000000E030606030E030C019C019803B
:105330000F000F0006000600000000000000000043
:10534000000000000000000000000000000000005D
:10535000000000000000000000C040406040C0703D
:10536000E18030E18019F30019B3000DB6000F1E83
:1053700000071C00070C00020800020000000000EB
:10538000000000000000000000000000000000001D
:105390000000000000000060C071803B801F000E14
:1053A000000E001F003B00718061C0C0E0000000E3
:1053B00000000000000000000000000000000000ED
:1053C0000000000000C030606030E030C019C0193B
:1053D000800F800F00070006000E000C001C001854
:1053E0000038003000000000000000000000000055
:1053F0000000003FC03FC00380070006000C001CF7
:1054000000380030007FE0FFE000000000000000F6
:10541000000000000018303030303030303030C004
:10542000303030303030303030180000C0C0C0C0B4
:10543000C0C0C0C0C0C0C0C0C0C0C0C0C0C0C0C06C
:10544000C00000C0406060606060606060186060C4
:1054500060606060606060C0000070FE1C00000062
:10546000000000000000000000000000000000003C
:10547000020000000200170005002E001000450089
:105480000800730010008A000E00B8000200E60059
:105490000600FD000600140108002B010C0042016B
:1054A000020070010500870102009E010F00B50196
:1054B0000B00E301060011020B0028020C0056024B
:1054C0000D0084020B00B2020C00E0020A000E0381
:1054D0000B003C030C006A03020098030300AF03B7
:1054E0000800C6030800DD030800F40308000B04ED
:1054F0000F0022040F0050040A007E040C00AC04CC
:105500000D00DA040800080509001F050D004D050F
:105510000B007B050200A9050600C0050C00D7059D
:105520000700050612001C060C00610611008F061C
:105530000A00D406100002070C00300708005E07BE
:105540000A0075070B00A3070F00D1071600FF071D
:105550000D0044080E0072080C00A0080400CE08DC
:105560000F00E5080500130906002A090F0041098C
:1055700005006F090C0086090C00B4090900E20956
:105580000B00100A0C003E0A06006C0A0C00830A8D
:105590000A00B10A0200DF0A0500F60A0A000D0B34
:1055A00002003B0B1200520B0A00970B0C00C50BBC
:1055B0000C00F30B0C00210C05004F0C0700660CCF
:1055C00006007D0C0A00940C0C00C20C1200F00CBA
:1055D0000B00350D0C00630D0B00910D0500BF0D88
:1055E0000200D60D0500ED0D0700040E17207E0009
:1055F0007054000854460008000800080008000025
:1056000000000000000000000000000800304080A2
:105610000090009000900088008800802078217819
:105620000180008000880080008001880088008060
:105630002080008000800088008800800080008832
:1056400000900090019800900088008800880190E8
:105650000190009800A000A8200000000000518CDC
:105660001084108410843084000000009294108410
:10567000108410848E730000000000009294CF7B91
:105680001084518CEB5A000000000000A210718CB5
:10569000EF7B1084518C2C63000092941084108452
:1056A000518C8E7300008210718C1084EF7B518CB2
:1056B000694A000000000000000000008A5218C67D
:1056C000DFFFFFFFDBDE0000929410841084108463
:1056D0001084108410841084108410841084AE739D
:1056E00000000000010001000000000000000000B8
:1056F000000000084058C3A861C041C062B842B869
:1057000041C041C041C041C021C821C041C041C0C9
:1057100041C040C021C841C041C041C041C021C8B2
:1057200020C021C042C062C041B082B882B041B046
:1057300081B0A2B083B063B063B062B861B082B030
:1057400000000000E318DFFFFFFFFFFFFFFF75AD64
:105750000000494AFFFFFFFFDFFFFFFF108400004A
:1057600000002C63FFFFFFFFFFFFDFFF6D6B0000FA
:1057700000000000FFFFFFFFFFFFFFFFFFFF000033
:105780002842FFFFFFFFFFFFDFFF30842000518C26
:10579000FFFFFFFFFFFFFFFF0842000000000000C7
:1057A0002000BEF7FFFFFFFFFFFFFFFF55ADAA522E
:1057B000FFFFFFFFFFFFFFFFDFFFFFFFFFFFFFFF19
:1057C000FFFFFFFFFFFF14A5200000000100010004
:1057D000000000000000000020000018E39000B866
:1057E00021D001C001B842C000D000D000D000D00C
:1057F00000D000D001C821C820C800C800D000D007
:1058000000C800D000D000D000D000D000D000C828
:1058100020C040B820B840C040C040B841B022B01D
:1058200042B861B082A8007800000000718CFFFFD0
:10583000FFFFFFFFFFFF65290000B6B5FFFFFFFF79
:10584000FFFFFFFF0000000000009AD6FFFFFFFFF0
:10585000FFFFFFFF000000000000FFFFFFFFFFFF52
:10586000FFFFFFFF00000000B6B5FFFFFFFFFFFFD7
:10587000FFFF20000000DFFFFFFFBEF7FFFFFFFF7D
:10588000000000000000C318FFFFFFFFFFFFFFFF45
:10589000DFFFFFFF4529DBDEFFFFFFFFFFFFDFFF2D
:1058A000FFFFFFFFFFFFFFFFFFFFBEF7FFFFA63178
:1058B00001000100010001000100000000000000E3
:1058C0000000003883B000D001C841A882A0209811
:1058D00041A041A062986198619862986298629034
:1058E00081908190619862984298419861986198FE
:1058F00060A06198619861A020A820B841C820C824
:1059000040C040B841B821C041C060B004A10048C7
:1059100000000000FFFFFFFFFFFFFFFFFFFF000091
:105920000000FFFFFFFFFFFFFFFFFBDE2000000086
:105930000000FFFFFFFFFFFFFFFF18C60000000091
:105940005DEFFFFFFFFFFFFFFFFF410800000000CA
:10595000FFFFFFFFFFFFFFFF3CE72000E318FFFF13
:10596000FFFFFFFFFFFFD39C000020000000FFFFB0
:10597000FFFFFFFFFFFFDFFFFFFFFFFF0000FFFF55
:10598000FFFFFFFFFFFFFFFFFFFFDFFFFFFFFFFF47
:10599000FFFFFFFFFFFF000001000000000000000C
:1059A00000000000000000000010217021B821D08C
:1059B00021A86591F3E498FEBBFEBBFEBAFEDBFEB8
:1059C000DBFEDBFEBBFEDBFEDBFEDBFEDBFEDAFE30
:1059D000DBFEDBFEDBFEDBFED9FEDAFEBAFE75ED9A
:1059E00029AA62A001B800C040B861B821B801C8B6
:1059F00000C080A80381002800002421DFFFFFFFF2
:105A0000FFFFFFFF14A50000694ADFFFFFFFFFFF54
:105A1000FFFFAE73000000006D6BFFFFDFFFFFFFB5
:105A2000FFFFAA52000059CEDFFFFFFFDFFFFFFF9D
:105A3000E31800002000694AFFFFFFFFFFFFFFFFA0
:105A4000AE7300009294FFFFFFFFFFFFDFFF863180
:105A50000000000018C6FFFFFFFFFFFFFFFFFFFF72
:105A6000FFFF34A58E73DFFFFFFFFFFFFFFFFFFF88
:105A7000FFFFFFFFFFFFFFFFFFFFFFFF34A5000059
:105A80000000000000000000000000000000000016
:105A90000028E4A042B801A8CFDBBDFFFEFFFEFF57
:105AA000FFFFFFFFDFFFFFFFFFFFFFFFFFFFFFFF26
:105AB000FFFFFFFFFFFFFFFFFFFFFFFFFFFFFFFFF6
:105AC000FFF7FFF7FFFFDFFF9EFF56FD42A042C03A
:105AD00041B861B821B801D000C8C1B02048000861
