:020000040800F2
:10000000F80F0020450200084D0200084F020008CA
:1000100051020008530200085502000800000000C9
:10002000000000000000000000000000570200086F
:1000300059020008000000005B0200085D02000891
:100040005F0200085F0200085F0200085F0200080C
:100050005F0200085F0200085F0200085F020008FC
:100060005F0200085F0200085F0200085F020008EC
:100070005F0200085F0200085F0200085F020008DC
:100080005F0200085F0200085F0200085F020008CC
:100090005F0200085F0200085F0200085F020008BC
:1000A0005F0200085F0200085F0200085F020008AC
:1000B000292400085F0200085F0200085F020008B0
:1000C0005F0200085F0200085F0200085F0200088C
:1000D0005F020008692500085F020008A5250008E6
:1000E0005F0200085F0200085F02000800F002F8EB
:1000F00000F090F80AA090E8000C82448344AAF132
:100100000107DA4501D100F085F8AFF2090EBAE82F
:100110000F0013F0010F18BFFB1A43F0010318473B
:10012000406D0000606D0000103A24BF78C878C1AF
:10013000FAD8520724BF30C830C144BF04680C60ED
:10014000704700000023002400250026103A28BF35
:1001500078C1FBD8520728BF30C148BF0B60704739
:100160006E2900F0AB81702900F0ED82662903F062
:100170007D84652903F07A84672903F077846129F7
:1001800003F0768403681B0A28BF41F080016929C7
:1001900000F05881642900F05581752900F05281E2
:1001A0006F2900F07B82782900F0B982E92900F0FC
:1001B0001582E42900F01282F52900F00F82EF2960
:1001C00000F07882F82900F0B8820368DB0928BFC4
:1001D00041F08001632900F0B987732900F0BE87E0
:1001E000E32900F0C987F32900F0CE87002070478B
:1001F0001FB501F01BF804000020002103F0A6FB4E
:10020000401C60600020002103F08AFBE0601FBDFD
:1002100010B510BD00F0DCFF1146FFF7E9FF02F05A
:1002200053FD01F0B5F803B4FFF7F2FF03BC01F092
:10023000BDF800004FF07300A0F101000028FBD1D1
:10024000704700000948804709480047FEE7FEE77D
:10025000FEE7FEE7FEE7FEE7FEE7FEE7FEE7FEE776
:1002600004480549054A064B70470000C9230008A9
:10027000ED000008F8090020F80F0020F80B00201E
:10028000F80B00201CB50C46064B7B4469460090D9
:10029000204600F02CF904460020694600F03AF9A7
:1002A00020461CBD870200004FF0000200B5134637
:1002B00094469646203922BFA0E80C50A0E80C5086
:1002C000B1F12001BFF4F7AF090728BFA0E80C5037
:1002D00048BF0CC05DF804EB890028BF40F8042B30
:1002E00008BF704748BF20F8022B11F0804F18BF9D
:1002F00000F8012B704700004FF0013C50F8042B30
:1003000051F8043B9A4221D1A2EB0C03934313EA28
:10031000CC1317D150F8042B51F8043B9A4215D155
:10032000A2EB0C03934313EACC130BD150F8042B2C
:1003300051F8043B9A4209D1A2EB0C03934313EA10
:10034000CC13DBD04FF00000704700BFD01A01BAC9
:10035000B1FA81F101F0180122FA01F0CB40C1F1AC
:100360002001DBB2C0B2C01A2CFA01F3D11A9143BA
:1003700011EAC311E6D1704770477047704770B5F6
:10038000044685690068C10601D5302600E02026B4
:10039000C00707D070BDD4E9012130469047206ADC
:1003A000401C20626D1EF6D570BD70B5044685698F
:1003B0000078C00707D170BDD4E901212020904703
:1003C000206A401C20626D1EF6D570BD09684A0582
:1003D00001D540B27047C905FCD500B27047096825
:1003E0004A0501D5C0B27047C905FCD580B2704737
:1003F00070B50C460546012A05D02878800600D540
:10040000EA69002302E0012305E05B1C934202D26B
:10041000E05C0028F9D1A869E618C01AA861286A2A
:10042000184428622846FFF7AAFF04E0D5E9012115
:1004300014F8010B9047B442F8D32846FFF7B5FFF4
:1004400070BD00002DE9F0410646002410687529B2
:10045000314616A510D0FFF7B9FF002802DA404256
:1004600013A507E031688A0701D512A502E0490704
:1004700004D511A5012401E0FFF7B1FF00210A22F4
:1004800006F1240709E0B0FBF2FCB0FBF2F302FB3B
:100490001C00303078541846491C0028F3D12346FC
:1004A0002A463046BDE8F04100F061BA0000000085
:1004B0002D0000002B0000002000000011680268E1
:1004C000006A530501D508700AE0D30501D50880FC
:1004D00006E0130603D5C217C1E9000200E0086078
:1004E0000120704701694A1C02610878704700B515
:1004F0008FB0CDE901310021059105497944CDE95D
:1005000003101146684600F029F90FB000BD000045
:10051000E5FFFFFF0A6802F8010B0A607047000060
:100520002DE9FF5F15468A460446DFF8AC80F844A3
:100530000027D8E900103E46CDE9001010E03AF857
:1005400016106A4602A800F023FE411C07D021784D
:10055000890603D5E269391891420DD80744761C03
:100560002078800602D5E069B84205DDAE42E6DBC0
:100570003AF816000028E2D1A069C01BA06120460D
:10058000FFF7FDFED8E90010CDE90010002017E0CC
:100590003AF818106A4602A800F0FAFDB0F1FF3FE1
:1005A00081460BD000250DF1080B05E0D4E90121AF
:1005B0001BF8050090476D1C4D45F7D308F101006D
:1005C000B0428046E4DB206A384420622046FFF7D0
:1005D000ECFEBDE8FF9F0000326800002DE9F0410D
:1005E0008046D21D22F007020025D2E90002F5293B
:1005F00015A614D0011E72F1000106DA0023D0EB1B
:10060000030063EB020211A608E0D8F800108B0784
:1006100001D50FA602E0490701D50EA60125114616
:10062000002408F1240704E000F05CF930323A5568
:10063000641C50EA0102F7D12B463246214640465F
:10064000BDE8F04100F093B9000000002D0000006B
:100650002B0000002000000030B4002100F1240431
:1006600008E002F00705D208303542EA4372DB08A1
:100670006554491C52EA0305F3D10468002310A213
:10068000250708D504F020040C4304D0C4690123D5
:100690000CA2641EC46130BC00F069B910B50446F8
:1006A00021461068FFF79BFE02462046BDE8104039
:1006B0000023D1E7D21D22F00701D1E90023CBE7C7
:1006C0000000000030000000F0B40D46018809056C
:1006D00002D5214C7C4402E01F4C7C440E340021A6
:1006E00000F1240608E002F00F071209E75D42EA74
:1006F00003721B097754491C52EA0307F3D10278AD
:100700000023120704D5702D06D009B1022311343D
:100710002246F0BC00F02BB901231034F8E770B585
:1007200004460D4621461068FFF759FE0246294649
:100730002046BDE870400023C6E7D21D22F0070323
:10074000D3E90023C0E70368126843F02003036085
:100750000823C3610023B7E7946600002DE9F05F2A
:10076000894604464FF0000ADFF874B1FB44C0F834
:1007700020A02046E1688847002874D0252806D0AC
:10078000D4E901219047206A401C2062F1E700264D
:100790005F462046E16888472028054607DB312D63
:1007A00005D2781910F8200C08B10643F1E7B0071C
:1007B00001D526F00406C4F81CA00027C4F818A030
:1007C0002A2D09D0284602F04BF838B304EB8708ED
:1007D000303DC8F8185019E059F8041B204604EBC6
:1007E00087029161E1688847012F054618D1E069C9
:1007F000002820DA26F020061DE0D8F8180000EBCB
:10080000800005EB40003038C8F818002046E16849
:100810008847054602F024F80028EED1012F0AD0BF
:100820002E2D08D12046E16888477F1C0546022FFF
:1008300046F02006C4DBA069002803DA404246F0F7
:100840000106A061F00701D026F010066C2D0BD038
:10085000682D09D04C2D39D06A2D35D0742D35D066
:100860007A2D33D016E038E0E1682F4620468847DD
:10087000B842054609D16C2F26D04FF48060E1685C
:10088000064320468847054604E06C2F1AD04FF4F3
:10089000807006430DB3A5F14100192802D8203518
:1008A00046F400664A462946204626604E46FFF733
:1008B00057FC80B101280BD0F61D26F0070000F18F
:1008C000080956E74020E4E78020D8E70020D6E773
:1008D00006F104094DE7284652E7206ABDE8F09F7B
:1008E0002466000030B5B0F10A024FEA900E71F1B3
:1008F00000034EEA817EB0EB0E0061EB91014FEAFE
:10090000101E4EEA017E10EB0E0041EB11114FEA72
:10091000102E4EEA016E10EB0E0041EB11214FEA52
:10092000104E4EEA014E10EB0E0041EB1141401803
:1009300041F100014FEAD00040EA41704FEAD10195
:1009400010EB80054FEA810444EA907444EB010403
:100950006D1944EB0404521BA3414FF0000348BF40
:100960000A3200D530BD401C41F1000130BD2DE9F7
:10097000F0470D4699469246044600F12408016866
:10098000880604D5E06921F01001216000E0012013
:10099000A84201DD471B00E00027A1697A1902EB9C
:1009A0000900081AA0612078C00602D42046FFF78B
:1009B000E6FC002608E0D4E901211AF80600904779
:1009C000206A401C761C20624E45F4DB2078C0066D
:1009D0000AD52046FFF7D3FC06E0D4E901213020F8
:1009E0009047206A401C2062381EA7F10107F4DC02
:1009F00007E0D4E9012118F805009047206A401C5F
:100A00002062281EA5F10105F3DC2046FFF7CDFC8E
:100A10002078000602D50220BDE8F0870120FBE720
:100A200070472DE9FF4F0C461E464FF0FF378BB045
:100A3000D2E90001DDF860800A908A46C1F30A55C8
:100A400005B93D46002108464FF00000BAF1000FFD
:100A500000F4400005DA00EB80004FF4400101EAA9
:100A600050004FEA9059B9F1010F00DDB9460A98DC
:100A700050EA4A000ED044F61050A5F2FF35454327
:100A80002F14B8F1000F1ED07542291E1EDDC9F1CA
:100A900000021CE0B8F1010F4FF0000001D030213E
:100AA00003E0F24305E02154401CB042FBDB30463A
:100AB0000022002121540B99C1F80880C1E90020CF
:100AC0000FB0BDE8F08FBD1B6D1CDEE74A4600DAB3
:100AD000694206A800F0EEFB06AB93E8070003AB03
:100AE00083E8070050460A9900F067FC8DE807008C
:100AF000A0F500501F3800900398002D09DD42F248
:100B00001F014A46084403A90390684600F0C6FE48
:100B100008E0A0F500504A461F3803A90390684634
:100B200000F0D0FE8DE807000004000C03D04FF069
:100B3000FF30410800E01046B8F1000F03D000225A
:100B4000009215461EE0751E05D4FFF7CBFE30322D
:100B500062556D1EF9D5B3460122084302D000222A
:100B60007F1C04E02078302801D100227F1E002A5B
:100B7000099786D01DE0112D07DAFFF7B3FE30325A
:100B800062556D1C50EA0102F5D1084302D000986D
:100B9000C8B10EE00021681E05E0235C625C63546E
:100BA0002254401E491C8142F7DBAB46A81B401E65
:100BB0000990002004F80B000B98099AC0F80880EF
:100BC000C0E9002B7CE711264FF0000859E72DE91A
:100BD000F04F88460446D21D22F0070191B0D1E9BA
:100BE0000001CDE90A0101F0E8FD02460B98C00FB3
:100BF00001D02D2007E02068810701D52B2002E0DD
:100C0000202101EAC000032A099001D0072A05DB50
:100C100003464146204600F00DFB0BE1207880069C
:100C200001D5E06900E00620B8F1650F814606D0E5
:100C3000B8F1660F18D0B8F1670F70D131E000201D
:100C4000B9F1110F009001DB112301E009F101035B
:100C50000AAA01A90CA8FFF7E4FEDDE90C70002642
:100C600009F10105834647E001204B4600904FF013
:100C700000470AAA01A90CA8FFF7D3FEDDE90DB0D1
:100C80000C995D46002610B909F101000D18B9EB69
:100C9000050003D4C0F1FF3609F10105A5EB0900F9
:100CA0002BE0B9F1010F01DA4FF001090020B9F191
:100CB000110F0090484601DD112300E003460AAA07
:100CC00001A90CA8FFF7ADFEDDE90C704D4600262A
:100CD0008346207800070AD4AB4500DA5D4601A8B8
:100CE000012D04DD411911F8011C302907D04F45B1
:100CF00002DA17F1040F04DA012082460FE06D1EBC
:100D0000EEE7002F02DCED1B3E4403E0781CA84216
:100D100000DD7D1CB81B00F1010A4FF00047207870
:100D2000000703D4AA4501DB4FF0FF3A0021B7F1D9
:100D3000004F0DF143088DF8431024D002202B23DF
:100D4000002F01DA7F422D230A21021EA0F10100AB
:100D500000DC5FB197FBF1FC97FBF1F201FB1C7C1F
:100D600017460CF1300C08F801CDEEE7A8F10100B0
:100D700003702188090501D5452100E06521A0F116
:100D8000010800F8011C09980FA9A1EB0807FF1D35
:100D900000B10120411901EBEA70A1693844081A39
:100DA000401EA0612078C00602D42046FFF7E7FA73
:100DB000099828B1D4E901219047206A401C20629B
:100DC0002078C00622D52046FFF7D9FA1EE0002E73
:100DD00004DBB34502DD01A8805D00E03020D4E9EA
:100DE00001219047206A401C2062761CAAF1010074
:100DF0005FEA000A0AD100F019FAC0680168405C95
:100E0000D4E901219047206A401C2062281EA5F1E8
:100E10000105DCDC07E0D4E9012118F8010B90475B
:100E2000206A401C2062381EA7F10107F3DC20462F
:100E3000FFF7BBFA032011B043E600002DE9F04FA5
:100E400004460D46D21D22F0070089B0D0E9009774
:100E50004846394601F0B1FC0246F80F01D02D2377
:100E600007E02068810701D52B2302E0202101EA59
:100E7000C0038DF820300BB1012000E00020032AD0
:100E8000824601D0072A04DB2946204600F0D2F929
:100E90003FE12078800601D40D2500E0E569C7F325
:100EA0000A560D2D49DA00214FEA175B08464FF02C
:100EB0000000002F00F4400007DA00EB80004FF440
:100EC000400100EBD07001EA60008115012901DDCD
:100ED0004FF0FF3100224FEA850CBCF1180F06D30A
:100EE0001346ACF118004FF08052C24003E04FF4BB
:100EF000801323FA0CF30CF10C0CBCF1200F04D37B
:100F0000ACF1200C09FA0CF001E007FA0CF0002912
:100F10004FF0004801DD18B90FE00ED140450CD369
:100F200019EB02095F4121B9404502D19F4329EAEB
:100F30000209BBEB175F00D0761C2088000502D5A4
:100F40007B48784402E07A487844193808AA30236C
:100F500002F80A30037C0AF10101002E0AF1020AAC
:100F600053546A4602DC4FF0300101E04FF031018A
:100F70004FF001088DF8001002D0A6F2FF3603E012
:100F800059EA470100D06B4E002D02DC2178090799
:100F900004D54FF002082E218DF80110C44600211F
:100FA0000BE0C7F303433F01C35C491C6D1E02F80D
:100FB0000830052908F1010801DA002DF1DC0021D3
:100FC0000CE000EB1973491C1B786D1E082902F810
:100FD00008304FEA091908F1010801DA002DF0DCA8
:100FE00021688B0602D516E0A8F10108E04505DD71
:100FF00002EB080313F8013C302BF5D0B8F1000FD9
:1010000009DD02EB080313F8013C2E2B03D109077D
:1010100001D4A8F10108002D05DD3E2102F80810D9
:101020006D1E08F10108407C002E02F8080008F14E
:10103000010804DA2D20764202F8080002E02B2095
:1010400002F808000A214FF47A70864208F101087C
:101050000BDB96FBF0F3303302F8083096FBF0F32D
:1010600008F1010800FB136601E0642E0CDB64202C
:1010700096FBF0F3303302F8083096FBF0F308F1FA
:10108000010800FB136601E00A2E06DB96FBF1F077
:10109000303002F8080008F1010896FBF1F001FB7E
:1010A0001060303002F80800A16908F1010808EB6F
:1010B000050202EB0A00081AA0612078C00602D4DB
:1010C0002046FFF75CF9216A08AE01EB0A002062B6
:1010D00004E0D4E9012116F8010B9047BAF1010AA6
:1010E000F7D22078C00602D52046FFF748F96E46B1
:1010F00009E016F8010B3E280FD0D4E901219047F2
:10110000206A401C2062B8F10108F2D22046FFF7A5
:101110004CF909B00320BDE8F08F206A2844206212
:1011200003E0D4E90121302090476D1EEBD3F8E7AE
:10113000725E000002FCFFFF10B5436913B1AFF30C
:10114000008001E0FFF754F9012010BD127800F192
:1011500024010A7000224A700122EDE711684FF065
:10116000FF32E9E710B5436913B1AFF3008001E046
:10117000FFF7D6F9012010BD128800F12401828406
:101180000022C2840122EDE711684FF0FF32E9E747
:1011900070B516460C46054600F040F8036893F813
:1011A0000101012806D0FF2C0FD8185D68B101207D
:1011B0002C7070BDD3F807013246214603F20713A5
:1011C00003442846BDE8704018474FF0FF3070BD1B
:1011D000754600F0E7F8AE4605006946534620F034
:1011E0000700854618B020B5FFF73AF8BDE8204063
:1011F0004FF000064FF000074FF000084FF0000BD3
:1012000021F00701AC46ACE8C009ACE8C009ACE885
:10121000C009ACE8C0098D467047000010B500F069
:1012200005F8001D10BD00BF2527000000487047CD
:10123000B80900202DE9F0411F4604460326016845
:10124000072A01F4006004DB08B116A505E016A525
:1012500003E008B115A500E015A521F010002060FD
:10126000A069C01EA0610FB1401EA0612046FFF71B
:1012700086F84FB1D4E9012138469047206A401CD6
:101280002062C01C206206E0206AFAE7D4E901214E
:1012900015F8010B9047761EF8D22046FFF785F827
:1012A000BDE8F0814E414E006E616E00494E460031
:1012B000696E66002DE9F047814616468AB03348CC
:1012C00078440DC88DE80D0030487844801C03AC8C
:1012D0000DC884E80D0041F69B300844372190FB8F
:1012E000F1F290FBF1F5A5F1800501FB12041B3C26
:1012F00002D56442012000E00020DFF890A0804683
:101300000027FA44AAF1BE0A0DE0E00709D03246F0
:10131000684607EB47010AEB810100F0D3FA8DE83C
:10132000070064107F1C002CEFD1184F7F44AC3FA6
:1013300018E0E80714D007EB04100DF1180A90E844
:101340000E008AE80E00C068F04201D1981908909A
:10135000324606A903A800F0B5FA03AB83E80700FC
:101360006D10641C002DE4D132466946B8F1000FBF
:1013700003A802D000F092FA01E000F0A3FAC9E954
:101380000001C9F808200AB0BDE8F087845B0000BE
:1013900010B50446AFF300802046BDE81040FEF7CC
:1013A00042BF0000004870479809002001491820FA
:1013B000ABBEFEE72600020070475FEA400C08BFA4
:1013C00091F0000F4FEA8C234FEAC12243EA5151BA
:1013D0004FEA1C5018BF00F5F0404FEA300018BF2C
:1013E00041F000415FEA6C5C00F02980BCF1FF3FF6
:1013F00008BF40F080407047130C06BF12044FF046
:10140000100C4FF0000C130E04BF12020CF1080C6C
:10141000130F04BF12010CF1040C930F04BF9200D0
:101420000CF1020CD30F04BF52000CF1010C114659
:101430004FF00002A0F11F00A0EB0C00704711F06C
:10144000004F08BF704731F000413FF4D5AF0B0C9F
:1014500006BF09044FF0100C4FF0000C0B0E04BF38
:1014600009020CF1080C0B0F04BF09010CF1040C6C
:101470008B0F04BF89000CF1020CCB0F04BF490095
:101480000CF1010CCCF12003A0EB0C0022FA03F3C9
:1014900002FA0CF241EA030100F10100704720F06A
:1014A0007F4C80EA030023F07F47ACEB070303F592
:1014B0007C5300F0004003F1FF032DE980494FEA1F
:1014C000154B09B44FEA144325EA0B4E24EA0348AE
:1014D0000FF2042606EB132749083E785FEA320232
:1014E00003FB0667C7F5000707FB06F64FEA54370C
:1014F0004FEAD64606F1020607FB066CCCF1005C0B
:101500004FEA1C472CEA074C07FB06F40CFB06F5D8
:1015100004EB15464FEA961634BF00204FF000400A
:101520004FEAD13706FB07FC4FEA1C4C0CFB0BF7CC
:10153000D21B03FB0CF761EB07010CFB0EF7B0EBC2
:10154000074072EB17420CFB08F734BFA2EB0742CF
:10155000B2EB074261EB17414FEA0C444FEA9107A7
:1015600006FB07FC4FEA1C4C0CFB0BF7B0EBC7402B
:1015700072EB573203FB0CF734BFA2EBC742B2EB5E
:10158000C74261EB57310CFB0EF7B0EBC70072EBB3
:1015900057720CFB08F734BFA2EBC702B2EBC702CD
:1015A00061EB5771039F4FEA816141EA921104EBAD
:1015B000CC044FEAD1374FEA826206FB07FC42EACD
:1015C00090124FEA80604FEA1C4C0CFB0BF7D21BC9
:1015D00003FB0CF761EB07010CFB0EF7B0EB0740C8
:1015E00072EB17420CFB08F734BFA2EB0742B2EBD9
:1015F000074261EB17414FEA8C554FEA910704EB24
:101600009C2406FB07FC4FEA1C4C0CFB0BF7B0EBD1
:10161000C74072EB573203FB0CF734BFA2EBC74253
:10162000B2EBC74261EB57310CFB0EF7B0EBC700D2
:1016300072EB57720CFB08F734BFA2EBC702B2EB98
:10164000C70261EB577115EB4C254FEA816141EA06
:1016500092114FEA82624FEAD13742EA901206FBBA
:1016600007FC44F100044FEA80604FEA1C4C0CFB7D
:101670000BF7D21B03FB0CF761EB07010CFB0EF71A
:10168000B0EB074072EB17420CFB08F734BFA2EB3C
:101690000742B2EB074261EB174115EB1C154FEA0D
:1016A000813141EA92414FEA823242EA90424FEA66
:1016B00080304FEA0C7644F1000448EA03434EEAD6
:1016C0000B484FF0000EB2EB080C71EB030724BF80
:1016D000624639464EEB0E0E4FF0000B0018524199
:1016E00049414BEB0B0BB2EB080C71EB03077BF1A1
:1016F000000B24BF624639464EEB0E0E4FF0000B36
:101700000018524149414BEB0B0BB2EB080C71EB4B
:1017100003077BF1000B24BF624639464EEB0E0EE9
:1017200051EA020718BF46F0010616EB0E7655F196
:10173000000254F1000103D5BDE88901BDE800882D
:10174000BDE88901BDE80048B619524141EB0101ED
:10175000A3F10103704780807F7E7D7C7B7A79785E
:10176000777676757473727171706F6E6E6D6C6C66
:101770006B6A6A6968686766666564646363626108
:101780006160605F5F5E5E5D5D5C5C5B5B5A5A5989
:1017900059585857575656555555545453535252F5
:1017A0005251515050504F4F4F4E4E4D4D4D4C4C4D
:1017B0004C4B4B4B4A4A4A49494948484847474796
:1017C00047464646454545444444444343434342D3
:1017D000424242414141002B26D4770021D01CB522
:1017E0004FEA370703B44FF010004FF010014FF0ED
:1017F00000000FBCBDE810400BF1010BBBF1010F65
:1018000008BF5FEA170722BF12F1010211F10101BF
:101810004FF0004143F1000300F0004043EA0000B4
:101820007047F9D35708DAE746EA064613F1400F46
:101830004FEA16461FDD13F1200FDFBF16430A469D
:10184000002120335B42C8D0C3F1200746EA064698
:1018500002FA07F74FEA164646EA0706C3F12007E1
:1018600022FA03F201FA07F721FA03F14FF000031D
:1018700042EA0702B1E746EA020646EA06464FEAAE
:10188000164646EA0106BCBF46EA0646360C4FF04D
:1018900000034FF000024FF000019EE72DE9C04821
:1018A000934630B491E8380007C831EA400C48BF8D
:1018B00034EA430C03D5FFF7F2FDFFF78CFFF0BCD1
:1018C000BDE800882DE9C048934630B491E838005F
:1018D00007C810F0804F08BF13F0804F03D100F00D
:1018E00005F8FFF778FFF0BCBDE8008820F07F47DF
:1018F00080EA030023F07F4C07EB0C03A3F57C5335
:1019000000F00040A3F1FE0392F0000F00F0B3805E
:1019100095F0000F00F077802DE901494FEA114062
:101920004FEA144621EA004800FB06FC24EA064779
:1019300008FB06F607FB08F800FB07F718EB06485C
:101940004CEB164C4FEA124B18EB07484FEA154682
:101950004CEB174022EA0B4E0BFB06FC25EA064730
:101960000EFB06F607FB0EFE0BFB07F71EEB064E03
:101970004CEB164C4FF000061EEB074E4CEB174B92
:1019800018EB0B0840F1000018EB0E0B58EB0008A9
:1019900040F100008F1A4FF000013CBFC943661BA5
:1019A00014BFB5EB040C00213CBFC943F61B4FEA42
:1019B00017444EEA8E0E27EA04454FEA1C4704FB03
:1019C00007622CEA074C05FB07F70CFB05F604FB46
:1019D0000CFC16EB074642EB174216EB0C4642EBAB
:1019E0001C421BEB060658EB0202414146EA9E06EA
:1019F00001D5BDE80189B619524141EB0101A3F1BE
:101A00000103BDE801894FEA14454FEA114724EA72
:101A1000054621EA074C05FB07F406FB07F70CFB1C
:101A200006F105FB0CFC11EB074144EB17444FEAB0
:101A3000124711EB0C4144EB1C4422EA074C05FB16
:101A400007F206FB07F70CFB06F605FB0CFC16EB92
:101A5000074642EB174216EB0C4642EB1C456A1850
:101A600054F1000148BF7047B619524141EB0101E2
:101A7000A3F10103704795F0000F37D04FEA1142F0
:101A80004FEA144721EA024624EA074C02FB07F119
:101A900006FB07F70CFB06F402FB0CFC14EB0744F7
:101AA00041EB17414FEA154714EB0C4441EB1C4145
:101AB00025EA074C02FB07F506FB07F70CFB06F6C9
:101AC00002FB0CFC16EB074645EB174516EB0C46E4
:101AD00045EB1C42121951F1000148BF7047B6197D
:101AE000524141EB0101A3F1010370474FEA144554
:101AF0004FEA114724EA054621EA074C05FB07F1A6
:101B000006FB07F70CFB06F24FF0000605FB0CFC8A
:101B100012EB074241EB174112EB0C4251EB1C4117
:101B200048BF7047921841EB0101A3F101037047D0
:101B300021B1826842F00102826003E0826822F0F3
:101B400001028260704721B1826842F48072826033
:101B500003E0826822F480728260704701460020B0
:101B60008A6802F004020AB1012000E000207047F8
:101B7000014600208A6802F008020AB1012000E054
:101B80000020704730B502460020002350680F4CFB
:101B900020400D790C6844EA052420435060906889
:101BA0000B4C2040D1E902542C434D7944EA4504C2
:101BB00020439060D06A20F470000C7C641EE4B274
:101BC000234340EA0350D06230BD0000FFFEF0FF27
:101BD000FDF7F1FFF0B504460D4600200021092D68
:101BE00011DDE068A5F10A0606EB4607072606FAAE
:101BF00007F18843A5F10A0606EB460603FA06F14B
:101C00000843E0600CE0206905EB4507072606FA6B
:101C100007F1884305EB450603FA06F10843206106
:101C2000072A0FDA606B561E06EB86071F2606FA98
:101C300007F18843561E06EB860605FA06F10843AF
:101C4000606322E00D2A0FDA206BD61F06EB8607B1
:101C50001F2606FA07F18843D61F06EB860605FA0B
:101C600006F10843206310E0E06AA2F10D0606EBDE
:101C700086071F2606FA07F18843A2F10D0606EB38
:101C8000860605FA06F10843E062F0BD816841F07E
:101C900008018160704721B1826842F4A00282602D
:101CA00003E0826822F4A00282607047816841F0FC
:101CB00004018160704770B50024FA25002605E014
:101CC000012000F0F7FE0444701CC6B2AE42F7DB00
:101CD000B4FBF5F4204670BD10B50446012C05D1C7
:101CE0000102064800F0B2F9002406E02CB94FF4D6
:101CF0008071024800F0A8F9012410BD00080140DD
:101D000021B1026842F00102026004E002684FF66D
:101D1000FE731A400260704701684FF6FE72114070
:101D200001600021016041608160C1604B498842CF
:101D300008D14A490839496841F00F01474A083A31
:101D400051608AE045491431884208D14349083935
:101D5000496841F0F001414A083A51607DE03F494D
:101D60002831884208D13D490839496841F47061F9
:101D70003A4A083A516070E038493C31884208D10B
:101D800036490839496841F47041344A083A51608B
:101D900063E032495031884208D1304908394968F6
:101DA00041F470212D4A083A516056E02B496431C4
:101DB000884208D129490839496841F47001274A05
:101DC000083A516049E025497831884208D12349D1
:101DD0000839496841F07061204A083A51603CE096
:101DE0001F49884206D1011F096841F00F01021FF7
:101DF000116032E01A491431884208D11849091F8C
:101E0000096841F0F001164A121F116025E01449DB
:101E10002831884208D11249091F096841F47061CC
:101E20000F4A121F116018E00D493C31884208D159
:101E30000B49091F096841F47041094A121F1160DA
:101E40000BE007495031884207D10549091F09684D
:101E500041F47021024A121F1160704708000240CD
:101E60000804024010B50022026847F6F0739A4356
:101E70000C6A8B6823430C6923434C6923438C69A8
:101E80002343CC6923434C6A23438C6A23431A437C
:101E90000260CB6843600B6883604B68C36010BD11
:101EA0002DE9F041024600250026002000230024F1
:101EB000002791F803C00CF00F0591F803C00CF057
:101EC000100CBCF1000F03D091F802C04CEA0505DC
:101ED00091F800C0BCF1000F31D0146800202BE055
:101EE0004FF0010C0CFA00F3B1F800C00CEA030645
:101EF0009E4220D183004FF00F0C0CFA03F7BC4335
:101F000005FA03FC4CEA040491F803C0BCF1280F65
:101F100006D14FF0010C0CFA00FCC2F814C00AE024
:101F200091F803C0BCF1480F05D14FF0010C0CFA39
:101F300000FCC2F810C0401C0828D1D31460B1F8CE
:101F400000C0BCF1FF0F34DD546800202EE000F12A
:101F5000080C4FF0010808FA0CF3B1F800C00CEAC5
:101F600003069E4221D183004FF00F0C0CFA03F7B9
:101F7000BC4305FA03FC4CEA040491F803C0BCF12D
:101F8000280F05D100F1080C08FA0CF8C2F81480EB
:101F900091F803C0BCF1480F07D100F1080C4FF0D5
:101FA000010808FA0CF8C2F81080401C0828CED3AB
:101FB0005460BDE8F0810000F0B50A46002300241B
:101FC0000021002500F00046B6F1004F02D11D4E61
:101FD000F16901E01B4E7168C0F3034583B200F460
:101FE0004016B6F5401F08D121F07061154E766895
:101FF00026F07066134F7E6012E000F48016B6F58E
:10200000801F06D1032606FA05F4A14341F0706152
:1020100006E0460D360103FA06F6B14341F0706161
:1020200022B1460D360103FA06F6314300F00046B0
:10203000B6F1004F02D1034EF16101E0014E716033
:10204000F0BD000000000140416170470161704730
:1020500070B5002100230F22C47804B3154C246806
:1020600004F4E064C4F5E064210AC1F10403CA4049
:10207000447804FA03F184781440214309010E4C9A
:102080000678A155047804F01F050124AC400578BA
:102090006D11AD0005F1E025C5F8004109E00478B7
:1020A00004F01F050124AC40044D0678761145F874
:1020B000264070BD0CED00E000E400E080E100E0AF
:1020C000024A0A400243024B1A60704780FFFF1F1A
:1020D00008ED00E001460020034A506820F440402B
:1020E00008435060704700000010024029B1064AC2
:1020F00052690243044B5A6104E0034A5269824325
:10210000014B5A61704700000010024029B1064A95
:10211000D2690243044BDA6104E0034AD269824384
:10212000014BDA61704700000010024029B1064AF5
:1021300092690243044B9A6104E0034A9269824324
:10214000014B9A61704700000010024030B5002139
:102150000022002400232D4D6D6805F00C0121B1F3
:10216000042905D0082923D105E0294D056022E086
:10217000274D05601FE0254D6D6805F47012234D55
:102180006D6805F48034022505EB92421CB9214D9F
:10219000554305600BE01D4D6D6805F400351DB11C
:1021A0001C4D5543056002E0194D5543056002E0A2
:1021B000174D056000BF00BF144D6D6805F0F001BC
:1021C0000909154D6B5C0568DD4045600F4D6D6874
:1021D00005F4E061090A104D6B5C4568DD408560DF
:1021E0000A4D6D6805F46051C90A0B4D6B5C45687A
:1021F000DD40C560054D6D6805F44041890B074D14
:102200006B5CC568B5FBF3F5056130BD001002409D
:1022100000127A0000093D0000000020100000209C
:1022200010B50446012C04D101210448FFF70EFF2C
:1022300003E001210148FFF707FF10BD000801403E
:1022400021B1028842F40052028004E002884DF677
:10225000FF731A400280704721B1028842F04002A9
:10226000028004E002884FF6BF731A400280704774
:102270000246002013890B400BB1012000E0002032
:1022800070470146888970478181704710B50022E8
:10229000028802F441520B884C8823438C882343E4
:1022A000CC8823430C8923434C8923438C892343C3
:1022B000CC8923431A430280838B4FF2FF7423405F
:1022C00083830B8A038210BD21B1828842F004020D
:1022D000828004E082884FF6FB731A408280704748
:1022E00010B500F001F810BD0CB500200190009071
:1022F0003348006840F480303149086000BF3048FE
:10230000006800F4003000900198401C0190009893
:1023100018B90198B0F5A06FF1D12948006800F410
:10232000003010B10120009001E0002000900098E2
:10233000012843D12348006840F01000214908607B
:102340000846006820F0030008600846006840F076
:10235000020008601A484068194948600846406809
:1023600048600846406840F480604860084640681D
:1023700020F47C1048600846406840F4E81048604B
:102380000846006840F08070086000BF0C48006894
:1023900000F000700028F9D00948406820F00300E0
:1023A000074948600846406840F00200486000BFA6
:1023B0000348406800F00C000828F9D10CBD00006B
:1023C000001002400020024010B51348006840F0A1
:1023D00001001149086008464068104908400E494C
:1023E0004860084600680E4908400B4908600846E6
:1023F000006820F4802008600846406820F4FE0051
:1024000048604FF41F008860FFF76AFF4FF00060DC
:102410000449086010BD0000001002400000FFF8F1
:10242000FFFFF6FE08ED00E010B50121880700F07F
:102430002FF800B910BD0121880700F017F80948EE
:102440000088401C80B207490880B0F57A7F06DB1F
:102450000020088004480088401C0349088000BF11
:10246000E8E700001400002016000020CA430282A2
:102470007047CA430282704721B1028842F00102CC
:10248000028004E002884FF6FE731A400280704713
:1024900030B50246002000230024158A05EA010316
:1024A000958905EA010413B10CB1012000E0002078
:1024B00030BD1AB183890B43838102E083898B434A
:1024C00083817047002202881D4B98420ED01D4B1D
:1024D00098420BD0B0F1804F08D01B4B984205D0EA
:1024E0001A4B984202D01A4B984204D14FF68F7380
:1024F0001A404B881A43174B984207D0164B984204
:1025000004D04FF6FF431A40CB881A4302808B88D1
:1025100083850B8803850A4B98420BD0094B984260
:1025200008D00E4B984205D00D4B984202D00D4B6F
:10253000984201D10B7A0386012383827047000001
:10254000002C01400034014000040040000800401D
:10255000000C00400010004000140040004001400A
:10256000004401400048014010B540F225510A489E
:1025700000F05EF878B10948007838B1064800F0FC
:1025800013F9C4B2064801682046884740F2255135
:10259000014800F025F810BD00380140540000202B
:1025A0004C00002010B540F225510A4800F040F8D8
:1025B00078B10948407838B1064800F0F5F8C4B25F
:1025C000064841682046884740F22551014800F0FE
:1025D00007F810BD00480040540000204C000020C7
:1025E00010B50022002340F66A14A14200D100BFBA
:1025F0000A1201249440A3B2DC43048010BD21B12F
:10260000828942F40052828104E082894DF6FF7390
:102610001A408281704702460020B1F5007F00D148
:1026200000BF13880B400BB1012000E00020704771
:1026300070B50246002400230025002040F66A16EB
:10264000B14200D100BFC1F3421501F01F030126C2
:1026500006FA03F3012D02D19689334006E0022DDC
:1026600002D1168A334001E0968A33400C120126CB
:1026700006FA04F41688344013B10CB1012000E0CE
:10268000002070BDF0B50346002400260025002080
:1026900040F66A17B94200D100BF1846C1F3421490
:1026A00001F01F06012707FA06F5012C01D10C30B5
:1026B00004E0022C01D1103000E014301AB1076898
:1026C0002F43076002E00768AF430760F0BD0000DA
:1026D0002DE9F04786B005460E460024A24600BF0D
:1026E000A1460027B08900B100BF2F462C8A4CF6C6
:1026F000FF700440F08804432C82AC894EF6F3103E
:102700000440B08831890843718908430443AC818F
:10271000AC8A4FF6FF400440B0890443AC8201A864
:10272000FFF714FD1F48874202D1DDF810A001E039
:10273000DDF80CA0A88900F4004040B10AEBCA0003
:1027400000EB0A1031684900B0FBF1F807E00AEB32
:10275000CA0000EB0A1031688900B0FBF1F8642070
:10276000B8FBF0F004012009642101FB1089A8895D
:1027700000F4004040B1322000EBC900B0FBF1F0A2
:1027800000F00700044308E0322000EB0910642148
:10279000B0FBF1F000F00F0004432C8106B0BDE85F
:1027A000F08700000038014001468888C0F3080027
:1027B0007047C1F3080282807047490050EAC12087
:1027C00018BF04204A0D18BF40F0010040F2FF720C
:1027D000B2EB515F08BF40F00200012808BF05209E
:1027E0007047000070B504461C48007868BB0120A3
:1027F0001A49087023E0B4F57A7F02DD4FF47A704D
:1028000000E02046064642F2283070434FF0E021B7
:102810004861002088610120086100BF4FF0E0207E
:10282000056905F0010018B105F480300028F5D0E5
:1028300000204FF0E02108618861A01B84B2002CC9
:10284000D9D100200549087007E001E000F01AFC2A
:10285000201EA4F101018CB2F8D170BD5C000020F3
:1028600030380A2801D2012070470020704700004C
:1028700000B591B001210846FFF738FC4648FFF744
:102880004BFA4648069046480790002008901020D2
:10289000099000200A9080200B9080000C9080000E
:1028A0000D9020200E9000020F900020109006A99D
:1028B0003948FFF7D7FA01213748FFF721FA0121FC
:1028C0000420FFF733FC0220ADF8140000208DF83F
:1028D000170005A93348FFF7E3FA01210820FFF7A5
:1028E00025FC0220ADF8140000208DF8170005A982
:1028F0002D48FFF7D5FA01214802FFF717FC002009
:10290000009001208DF804008DF805004FF4602040
:1029100002900020039002208DF8100069461F48A5
:102920004C38FFF72FF94FF44040FFF7D3FB072354
:102930000122114619484C38FFF74CF907230222AF
:10294000092116484C38FFF745F9012113484C3846
:10295000FFF7F9F8012111484C38FFF7E9F80F4863
:102960004C38FFF793F900BF0C484C38FFF700F9DB
:102970000028F9D109484C38FFF798F900BF0748FB
:102980004C38FFF7EBF80028F9D1012103484C3807
:10299000FFF781F911B000BD080002404C2401404E
:1029A000E000002000080140000C014008B50121B2
:1029B0001020FFF7BBFB03208DF8020048208DF8A4
:1029C00003004FF46040ADF8000069461548FFF77A
:1029D00067FA002022E0144951F8201000EB800231
:1029E000124B43F82210124931F8101000EB80020C
:1029F00003EB82029180012100EB800203EB820253
:102A00009171002100EB800203EB8202D17100EB97
:102A1000800203EB82021172411CC8B20328DADB88
:102A200008BD00000010014028000020A000002088
:102A30007A3A0008002001E000BF401C0428FBDBBC
:102A40007047F0B595B00646502101A8FDF72CFC63
:102A5000002005E056F8201001AA42F82010401C82
:102A60001428F7DB022018E001A951F82050441E79
:102A700007E001A951F8242001AB611C43F8212093
:102A8000641E002C04DD01A951F82410A942F0DCD9
:102A900001AA611C42F82150401C1428E4DBDDE946
:102AA0000A01471807EBD771481000F081FF15B0F5
:102AB000F0BD00000146024850F8210070470000B8
:102AC000DC0000200548008800EB4001C1EBC0108D
:102AD0000349098801EBC000704700001600002080
:102AE0001400002008B501210C20FFF71FFB032074
:102AF0008DF8020028208DF803004FF4C050ADF887
:102B0000000069460548FFF7CBF94FF4F070ADF8C7
:102B1000000069460248FFF7C3F908BD00080140FC
:102B2000000C014008B501210D20FFF7FFFA01213B
:102B30001248FFF741FA03208DF8020010208DF8AB
:102B400003001820ADF8000069460D48FFF7A8F90A
:102B50004FF40040ADF8000069460A48FFF7A0F9BD
:102B60004FF400410748FFF76FFA08210448FFF7C8
:102B70006BFA10210248FFF767FA08BD0002300027
:102B8000000C01400008014010B50446044A32F828
:102B90001410044A52F82400FFF756FA10BD000042
:102BA000743A00081800002010B50446044A32F8B0
:102BB0001410044A52F82400FFF748FA10BD000030
:102BC000743A00081800002008B54FF48070ADF882
:102BD000000010208DF8030003208DF802006946E4
:102BE0000E48FFF75DF90120ADF8000010208DF8C8
:102BF000030002208DF8020069460848FFF750F9EB
:102C00000120ADF8000010208DF8030002208DF89F
:102C1000020069460248FFF743F908BD0008014079
:102C2000000C014010B50120FFF7FAFAFFF702FF90
:102C30000120FFF751F80020FFF7F2FAFFF73BF809
:102C400020490860FFF7F6FE0020FFF745F8012451
:102C500010E00120FFF740F8FFF7ECFEFFF72BF83C
:102C6000184941F824000020FFF736F8FFF7E2FE8C
:102C7000601CC4B2802CECDB0120FFF72DF8FFF7BD
:102C8000D9FE0020FFF728F8FFF7D4FE002016E059
:102C90000C4951F8201001EB8101890140F6FF72C7
:102CA000B1FBF2F1074A42F82010114651F820100A
:102CB000A02902D39F2142F82010411CC8B28028CD
:102CC000E6DB10BD20010020FFF72CFFFFF70AFF15
:102CD00000F0F8FCFFF778FFFFF7CAFDFFF766FE8C
:102CE0004FF6FF720021022000F02EFA4FF4E1317E
:102CF000012000F01DFD8449012000F0A9FD83A101
:102D0000012000F0DBFD4FF00008FBE08248007876
:102D100098B1FFF7D7FE81490968401AC8280CD33B
:102D20007D4802787EA1012000F0C8FD00207A498C
:102D30000870FFF7C7FE79490860FFF7C3FEA0EBF4
:102D4000080032285ED3FFF7BDFE804600241EE057
:102D5000774A52F82420C2F19F02D1B2E0B2002299
:102D600000F08CFB734A52F82420C2F19F02D1B2CA
:102D7000E0B2002200F082FB6F4A52F82420C2F138
:102D80009F02D1B2E0B2002200F078FB641C802CDC
:102D9000DEDBFFF747FF00F00DF900F05DF90024DE
:102DA00021E0634A52F82420C2F19F02D1B2E0B27E
:102DB0004FF4784200F062FB5F4A52F82420C2F1DF
:102DC0009F02D1B2E0B24FF4FC6200F057FB594AC7
:102DD00052F82420C2F19F02D1B2E0B24FF6FF7246
:102DE00000F04CFB641C802CDBDB002507E0C5F108
:102DF0009F03E9B251A2022000F0C8FA14359F2DBA
:102E0000F5DB00BF4E480068002862D000204C4926
:102E100008604C4A4CA1012000F050FD002404E061
:102E20004848005D4E490855641C4648005D3A28F4
:102E3000F6D10027661C06E04248825D38467F1CBA
:102E400048490A54761C3F48805D2E28F4D1444AF4
:102E500045A1012000F032FD424A46A1012000F0C8
:102E60002DFD3F4A032146A000F017F9A0B13D4ACD
:102E7000012144A000F011F938B10020FFF794FEC1
:102E800041A1012000F01AFD06E00020FFF77CFEC2
:102E900042A1012000F012FD314939A0FDF72CFAC2
:102EA00098B9304937A0FDF727FA38B90020FFF765
:102EB0007BFE35A1012000F001FD06E00020FFF7B8
:102EC00063FE36A1012000F0F9FC012038490860BA
:102ED00000BF37480068A8B10021354A11600020C2
:102EE00003E00021174A1154401C6428F9DB00203C
:102EF00005E000211A4A11541A4A1154401C0A28AC
:102F0000F7DB00BF02E7000075380008696E6974DE
:102F100069616C697A650A009000002098000020C1
:102F200025632072656C65617365640A00000000AA
:102F3000200100209805002098070020256400004B
:102F40008C00002020050020434F4D504C45544537
:102F500020434F4D4D414E443A2025730A00000056
:102F6000840500208E0500204E414D453A202573F2
:102F70000A00000056414C3A2025730A0000000068
:102F80006C656400310000005455524E4544204C9D
:102F900045442031204F4E0A000000005455524E47
:102FA0004544204C45442031204F46460A0000004D
:102FB000880000202DE9F04194B050216846FDF7CB
:102FC00073F90025002005E0214951F820104DF843
:102FD0002010401C1428F7DB00260027002409E0FD
:102FE0006846FFF72EFD804600F0C6FC194941F8FF
:102FF0002400641C0A2CF3DD142416E0144850F855
:1030000024004DF825006D1C142095FBF0F100FB09
:1030100011556846FFF715FD804600F0ADFCA4F1A0
:103020000A010C4A42F82100641C802CE6DB6C2467
:1030300009E06846FFF705FD804600F09DFC054964
:1030400041F82400641C802CF3DB14B0BDE8F0814F
:10305000200100209805002000200BE0074951F8CE
:103060002010822901DA032100E09D21044A42F860
:103070002010401C8028F1DB7047000098050020DC
:103080009807002010B5002400BF03E0FDF7D2F838
:10309000601CC4B2642CF9DB10BD30B503460C468D
:1030A000002106E0585C555CA84201D0002030BDEC
:1030B000491CA142F6DB0120F9E710B5002332B12B
:1030C000012A05D0022A0AD0032A18D110E016E0FE
:1030D0000B7804780C70C3F17F0404700FE00C7857
:1030E000C4F19F040C700478C4F17F04047006E0FE
:1030F0000B780478C4F19F040C70037000BF00BF0C
:1031000010BD000070B59F237F220021084600F00B
:10311000E5F92C2000F086FA002410E000250AE0F2
:1031200008490988081200F0A5FA0649087800F055
:10313000A1FA681CC5B2A02DF2DB601CC4B2802CC1
:10314000ECDB70BD6200002070B506460C461546EB
:1031500000F0F2F900F0B0F9112000F063FA7820E5
:10316000FFF740FBB12000F05DFA012000F082FA89
:103170002C2000F07FFA2D2000F07CFAB22000F025
:1031800051FA012000F076FA2C2000F073FA2D207D
:1031900000F070FAB32000F045FA012000F06AFA5E
:1031A0002C2000F067FA2D2000F064FA012000F0D6
:1031B00061FA2C2000F05EFA2D2000F05BFAB420BA
:1031C00000F030FA072000F055FAC02000F02AFA8B
:1031D000A22000F04FFA022000F04CFA842000F008
:1031E00049FAC12000F01EFAC52000F043FAC220BF
:1031F00000F018FA0A2000F03DFA002000F03AFA38
:10320000C32000F00FFA8A2000F034FA2A2000F0E0
:1032100031FAC42000F006FA8A2000F02BFAEE20E2
:1032200000F028FAC52000F0FDF90E2000F022FA87
:10323000362000F0F7F9C02000F01CFAE02000F082
:10324000F1F90F2000F016FA1A2000F013FA0F20FF
:1032500000F010FA182000F00DFA2F2000F00AFA02
:10326000282000F007FA202000F004FA222000F0C5
:1032700001FA1F2000F0FEF91B2000F0FBF92320CB
:1032800000F0F8F9372000F0F5F9002000F0F2F92D
:10329000072000F0EFF9022000F0ECF9102000F018
:1032A000E9F9E12000F0BEF90F2000F0E3F91B205E
:1032B00000F0E0F90F2000F0DDF9172000F0DAF956
:1032C000332000F0D7F92C2000F0D4F9292000F0A9
:1032D000D1F92E2000F0CEF9302000F0CBF93020CB
:1032E00000F0C8F9392000F0C5F93F2000F0C2F91C
:1032F000002000F0BFF9072000F0BCF9032000F027
:10330000B9F9102000F0B6F92A2000F08BF900205E
:1033100000F0B0F9002000F0ADF9002000F0AAF9AB
:103320007F2000F0A7F92B2000F07CF9002000F0AE
:10333000A1F9002000F09EF9002000F09BF99F20E9
:1033400000F098F9F02000F06DF9012000F092F9FA
:10335000F62000F067F9002000F08CF93A2000F028
:1033600061F9052000F086F9292000F05BF9044896
:1033700006700448048004480580FFF7C3FE70BD52
:103380006000002062000020640000200FB42DE9DE
:10339000F04FC5B080468A464FF0000951A804900E
:1033A00005A8049A5099FCF76DFF002004900DF1D8
:1033B000140955E02F480068407803902D480068B4
:1033C00099F8002041680398101A01EB800000680A
:1033D0000290BDF80AB09DF80850264800680078B1
:1033E0000190002632E000242CE0002724E029464A
:1033F000EA1705EB5272D210521C06FB02B22046AD
:10340000E31704EB537302EBE3021A4B1B689B6850
:103410009A5C80233B411A400092009850B10AEB1D
:103420000602D1B208EB07022244D0B2124A128837
:1034300000F024F8781CC7B2281BB842D7DC04F18E
:103440000800C4B2AC42D0DB701CC6B20198864200
:10345000C9DB681C404400F0FF0809F1010900BF06
:1034600099F800000028A5D145B0BDE8F00F5DF83F
:1034700014FB0000680000206400002037B51446EB
:103480000C48027801A96846FFF717FE9DF8043042
:103490005B1C9DF80020521C9DF804109DF8000054
:1034A00000F01CF8201200F0E5F8E0B200F0E2F8BD
:1034B0003EBD00006000002010B504210648FEF764
:1034C000C3FD6420FFF78EF904210348FEF7BEFD1B
:1034D0003220FFF787F910BD000801402DE9F041C7
:1034E00004460D4616461F462A2000F09BF8002091
:1034F00000F0C0F8A11CC8B200F0BCF8002000F039
:10350000B9F8B11CC8B200F0B5F82B2000F08AF869
:10351000002000F0AFF8691CC8B200F0ABF8002042
:1035200000F0A8F8791CC8B200F0A4F82C2000F034
:1035300079F8BDE8F081000000B587B001210420D2
:10354000FEF7F4FD01210846FEF7F0FD0121080316
:10355000FEF7ECFD01213048FEF72EFD0420ADF80A
:10356000180010208DF81B0001208DF81A0006A904
:103570002A48FEF795FC0820ADF8180010208DF8B9
:103580001B0001208DF81A0006A92448FEF788FCCC
:10359000E020ADF8180018208DF81B0003208DF8EE
:1035A0001A0006A91D48FEF77BFC1020ADF8180094
:1035B0008DF81B0003208DF81A0006A91748FEF7A6
:1035C0006FFC0020ADF804004FF48270ADF80600E7
:1035D0000020ADF808000220ADF80A000120ADF887
:1035E0000C004002ADF80E000820ADF810000020DD
:1035F000ADF8120001A90A48FEF748FE012108486B
:10360000FEF72AFE00210648FEF71AFE00210448B4
:10361000FEF75AFE07B000BD00023000000801406E
:103620000030014010B5044610211048FEF70CFD93
:1036300008210E48FEF708FD00BF02210C48FEF7E6
:1036400017FE0028F9D021460948FEF71DFE00BFED
:1036500001210748FEF70CFE0028F9D00448FEF7C8
:1036600010FE10210148FEF7F1FC10BD00080140DA
:103670000030014010B5044610211048FEF7E4FC6C
:1036800008210E48FEF7E2FC00BF02210C48FEF7BD
:10369000EFFD0028F9D021460948FEF7F5FD00BFEF
:1036A00001210748FEF7E4FD0028F9D00448FEF7A1
:1036B000E8FD10210148FEF7C9FC10BD00080140DB
:1036C000003001401FB501210846FEF71FFD4FF4F1
:1036D0007A70ADF808004720ADF8040001A94FF05A
:1036E0008040FEF7EFFE01218807FEF7C2FE0122AF
:1036F00011469007FEF7DDFE01218807FEF7BCFEAC
:1037000000208DF801008DF8020001208DF80300E3
:103710001C208DF800006846FEF79AFC0020024944
:103720000880024908801FBD1600002014000020F8
:1037300030B585B004460D462C4951F82410094394
:1037400041F001000121FEF7F1FC34B9284951F89C
:1037500024000121FEF7EAFC05E0254951F8240088
:103760000121FEF7D3FC18208DF81300214830F812
:103770001400ADF8100003208DF812001E4951F816
:10378000240004A9FEF78CFB04208DF813001B48CD
:1037900030F81400ADF81000194951F8240004A9BC
:1037A000FEF77EFB00950020ADF80400ADF80600A2
:1037B000ADF80800ADF80C000C20ADF80A00114976
:1037C00051F824006946FEF783FF0E4951F82400A2
:1037D000012240F22551FEF755FF0A4951F8240015
:1037E0000121FEF70CFF05B030BD0000883A00084B
:1037F000903A0008983A00083C0000209C3A0008E3
:10380000440000203400002038B5044600214FF069
:103810000060FEF755FC0C4810F814008DF800000D
:1038200001208DF801008DF802008DF80300684634
:10383000FEF70EFC054951F82400012240F2255103
:10384000FEF720FF38BD0000A03A00083400002039
:1038500070B504460D46054840F82450012004493F
:1038600008552046FFF7D0FF70BD00004C00002037
:103870005400002010B50446FFF724F908490860F9
:1038800000200849086008480078A04204D0224679
:1038900006A1012000F012F80348047010BD0000DA
:1038A0009800002094000020900000207265636959
:1038B000657665643A2025630A0000000FB430B5D0
:1038C000C1B0054646A840906846409A4599FCF725
:1038D000D9FC002040906C4604E014F8011B2846F7
:1038E00000F008F820780028F7D141B030BC5DF82E
:1038F00014FB000070B504460D4600BF074951F89F
:1039000024004021FEF787FE0028F7D0034951F834
:1039100024002946FEF74DFF70BD00003400002052
:1039200010B500290AD00878002807D00548784447
:10393000FCF7E2FC002801D0002010BD02487844CA
:1039400010BD0000523500004A35000010B50029B6
:103950000AD00878002807D005487844FCF7CCFC4A
:10396000002801D0002010BD0248784410BD00009E
:10397000423500003A35000041000B0ED3F19E02A3
:1039800008D950F400034FEA032323FA02F048BF9A
:103990004042704710B500F023F800BF49922480E0
:1039A000002070476FF0004282EA2000704700005C
:1039B00010F0004148BF4042B0FA80F310FA03F221
:1039C000C3F19D030BD051EAC35101EB1220530602
:1039D00038BF704700F1010008BF20F001007047B8
:1039E0000EF1020E2EF0030E5EF8044B244204D4B6
:1039F0004FEA4102B2F17F4F11D84FEA4003B3F1D1
:103A00007F4F0CD80ED14FEAD07CB2F17F4F0CEB38
:103A10004C0C0CF1020C08BF4CEBD17C04E04FF0D5
:103A2000080C01E04FEAD17C0CEB4C0324FA03F4C0
:103A300004F00704B4F1040C06D20EEB840CBDE8CC
:103A400010404CF0010C6047DFE80CF00708020260
:103A50004FF00040A0F5800010BD0846420018BF9E
:103A6000D2F1807288BF00F0004010BDFDF7AFB802
:103A7000FDF7E4B90080080010000020004000803D
:103A8000040000000800000004000000080000001E
:103A900000400000000004000002000400040008D0
:103AA00025002700000000000000000000000000CA
:103AB0000080808080808080008000000090909056
:103AC0000000000000000000004848FC484848FC96
:103AD00048480000002070A8A0603028A87020008E
:103AE000006092640810204C920C00000040A0A0DE
:103AF0004040A89090680000008080800000000096
:103B000000000000004080808080808080808040B5
:103B100000804040404040404040408000A040A0E5
:103B20000000000000000000000000002020F8203D
:103B300020000000000000000000000000408000A5
:103B4000000000000000C0000000000000000000B5
:103B500000000000008000000010101020204040F5
:103B600080800000007088888888888888700000BD
:103B70000020E02020202020202000000070880865
:103B80000810204080F800000070880808300808FD
:103B90008870000000103030505090F81010000075
:103BA00000F88080F0880808887000000070888025
:103BB00080F088888870000000F8081010202040ED
:103BC00040400000007088888870888888700000F5
:103BD000007088888878080888700000000000005D
:103BE0008000000000800000000000004000000095
:103BF00000408000000000102040804020100000A5
:103C00000000000000F800F8000000000000008044
:103C100040201020408000000070880808102020FC
:103C20000020000000001E00618040808E40924015
:103C300092408DC0400060001F000000001010285E
:103C40002844447C8282000000F0888888F08888BC
:103C500088F0000000788480808080808478000074
:103C600000F088848484848488F0000000F88080D8
:103C700080F0808080F8000000F8808080F08080F4
:103C80008080000000788480809C84848C74000094
:103C90000084848484FC8484848400000080808088
:103CA0008080808080800000001010101010109024
:103CB00090600000008890A0C0C0A09088840000A0
:103CC000008080808080808080F80000008282C632
:103CD000C6AAAA92928200000084C4C4A4A4948CB0
:103CE0008C84000000788484848484848478000038
:103CF00000F8848484F880808080000000788484C8
:103D0000848484948C78040000F8848484F8848407
:103D1000848400000070888080700808887000002B
:103D200000F820202020202020200000008484840F
:103D30008484848484780000008282444444282857
:103D40001010000000008020802044404440444087
:103D50002A802A80110011000000000000828244A5
:103D6000281028448282000000828244281010100B
:103D70001010000000FE02040810204080FE000029
:103D800000C0808080808080808080C000808080B3
:103D9000404020201010000000C040404040404003
:103DA000404040C02050880000000000000000009B
:103DB0000000000000000000000000FC0080400047
:103DC000000000000000000000000000700878887B
:103DD0008878000000808080F088888888F0000063
:103DE00000000000708880808870000000080808CB
:103DF0007888888888780000000000007088F88043
:103E00008870000000408080C0808080808000003A
:103E10000000000078888888887808F0008080801A
:103E2000B0C888888888000000800000808080807A
:103E30008080000000800000808080808080808002
:103E40000080808090A0C0A09088000000808080CA
:103E5000808080808080000000000000EC929292C0
:103E60009292000000000000B0C888888888000096
:103E70000000000070888888887000000000000042
:103E8000F088888888F08080000000007888888822
:103E90008878080800000000C080808080800000D2
:103EA00000000000609040209060000000008080D2
:103EB000C0808080804000000000000088888888E2
:103EC0009868000000000000888850502020000002
:103ED000000000009292AAAA4444000000000000E2
:103EE00090906060909000000000000048484848B2
:103EF000302020C000000000F010204080F00000C2
:103F00002040404040804040404020000080808071
:103F10008080808080808000804040404020404001
:103F20004040800000006498000000000000000095
:103F30000200000001000C0004001800060024002C
:103F40000500300007003C00050048000100540057
:103F50000200600002006C0003007800050084008D
:103F60000200900002009C000100A8000400B400C0
:103F70000500C0000300CC000500D8000500E400E7
:103F80000500F0000500FC00050008010500140113
:103F90000500200105002C01010038010200440148
:103FA0000400500105005C01040068010500740173
:103FB0000A008001070098010500A4010600B00175
:103FC0000600BC010500C8010500D4010600E0019F
:103FD0000600EC010100F8010400040206001002D2
:103FE00005001C02070028020600340206004002F9
:103FF00006004C020600580206006402050070022A
:1040000005007C0206008802070094020B00A00253
:104010000700B8020700C4020700D0020200DC0259
:104020000400E8020200F4020500000306000C038D
:1040300002001803050024030500300305003C03BB
:1040400005004803050054030200600305006C03EB
:1040500005007803010084030100900305009C0320
:104060000100A8030700B4030500C0030500CC034A
:104070000500D8030500E4030200F0030400FC037C
:1040800002000804050014040500200407002C04A5
:1040900004003804050044040400500403005C04D8
:1040A0000100680403007404060080040C207E00F4
:1040B000303F0008A43A00080000000000000000A3
:1040C00000000000000000000000000000000000F0
:1040D00000C0C0C0C0C0C0C0C0C0C0C0C00000C020
:1040E000C000000000000000B8B0505050000000B8
:1040F00000000000000000000000000000000000C0
:104100000000CC00CC018C019803187FFF7FFE06D5
:1041100070FFFCFFFC18C019C03980330063000039
:10412000000000000000000000000018187FFFE001
:10413000C0C060381E1A1B1B1B1B1FFEFC1818007A
:104140000000000000003C0C7E18E718C330C3706C
:10415000E7607EC03DC001BC037E03E706C30EC31B
:104160000CE7187E183C0000000000000000000072
:10417000000000000F003F003000600060006000A1
:10418000300061FCC1FCC030C030C030E07070E075
:104190003FC00F8000000000000000000000000091
:1041A000C0C04040400000000000000000000000CF
:1041B000000000000000001C30306060C0C0C0C0C3
:1041C000C0C0606030381C00000000000000E070DB
:1041D0003018180C0C0C0C0C0C18183060C0800037
:1041E00000000000001818D33C1CF75A180000000B
:1041F00000000000000000000000000000000000BF
:10420000000000000000000004000400040004009E
:10421000FFF0FFF0060006000600060006000000A2
:10422000000000000000000000000000000000008E
:104230000000000000000000C0C08080800000007E
:10424000000000000000000000F8F800000000007E
:10425000000000000000000000000000000000005E
:10426000000000000000C0C00000000000000600C8
:104270000C001C001800380030006000E000C00195
:10428000C001800300030006000E000C0018001897
:1042900000300070006000C0000000000000001F3F
:1042A000003F8071C0E0E0C060C060C060C060C01E
:1042B00060C060C060C060E0E071C03F801F00006F
:1042C0000000000000000000000000040C0C1C3C7A
:1042D0007CEC4C0C0C0C0C0C0C0C0C0000000000CA
:1042E000000000001F003F8071C0E0E0C060C060BF
:1042F000006000E001C0038007000E001C001800F1
:104300003FE07FE00000000000000000000000002F
:1043100000000F001F8039C030C000C000C001C0C5
:10432000006000300030C030C030E07070E03FC04E
:104330000F800000000000000000000000000000EE
:104340000040004000C001C003C007C00EC01CC038
:1043500018C030C060C0E0C0FFF87FF800C000C0E7
:1043600000000000000000000000000000003F808E
:104370003F803000300030003F003F8041C000E00F
:1043800000600060006000E0E1C07F801E0000006F
:104390000000000000000000000000000300060014
:1043A00004000C0018003F803FC070E0E070C03097
:1043B000C030C030E07070E03FC01F8000000000DF
:1043C00000000000000000000000FFC0FFC00180EE
:1043D0000180030003000700060006000C000C002B
:1043E0001800180018003000300000000000000025
:1043F00000000000000000001F003F8071C060C08E
:1044000060C060C0318060C0C060C060C060C0601B
:10441000E0E071C03F801F000000000000000000CD
:104420000000000000001F803FC070E0E070C0305E
:10443000C030C030E07070E03FC01FC00380030098
:10444000070006000C000000000000000000000053
:10445000000000000000000000000000C0C00000DC
:10446000C0C00000000000000000000000000000CC
:1044700000000060600000606040408000000000BC
:10448000000000000000020F1C78F0E0781C0F0212
:10449000000000000000000000000000000000FF1D
:1044A000FF0000FFFF00000000000000000000000F
:1044B00000000000C0E0781C0F071E38F0C00000AC
:1044C0000000000000F8FE0E03030303073E3C302B
:1044D000300000303000000000000000000007E065
:1044E0001FF03838700C600EC3B6CE66CC66D86646
:1044F000D844F9CC79587E763C1C1FF807E00000C0
:1045000000000000000000000000000001000300A7
:104510000380038007C006C00CE00C601C701830DC
:104520001FF83FF8301C600C600CC0060000000053
:1045300000000000000000000000FC00FF00C3803D
:10454000C180C180C180C180C700C180C0C0C0C05F
:10455000C0C0C0C0C380FF80FE000000000000009B
:10456000000000000000000007F01FF03C00700099
:104570006000E000C000C000C000C000E0006000BB
:1045800070003C000FF007F0000000000000000089
:10459000000000000000FE00FF80C1E0C060C030ED
:1045A000C038C018C018C018C018C038C030C0709B
:1045B000C1E0FFC0FF00000000000000000000009C
:1045C0000000FFFFC0C0C0C0C0FCFCC0C0C0C0C075
:1045D000FFFF000000000000000000FF80FF80C01F
:1045E00000C000C000C000C000FE00FE00C000C04F
:1045F00000C000C000C000C000C0000000000000FB
:1046000000000000000000000007E01FE03800701C
:10461000006000C000C000C1F8C1F8C018E0186018
:104620001870183C181FF807E00000000000000098
:1046300000000000000000C060C060C060C060C03A
:1046400060C060C060FFE0FFE0C060C060C060C0EC
:1046500060C060C060C0600000000000000000009A
:10466000000000C0C0C0C0C0C0C0C0C0C0C0C0C08A
:10467000C0C0C0000000000000000C0C0C0C0C0CB2
:104680000C0C0C0C0C0C0C1CF8F0000000000000D2
:10469000000000C0E0C0C0C180C300C600CC00D88C
:1046A00000FC00C700C180C0C0C060C060C020C0A6
:1046B00030C030000000000000000000000000C01A
:1046C000C0C0C0C0C0C0C0C0C0C0C0C0C0FEFE002E
:1046D00000000000000000000000100200180600AA
:1046E0001806001C0E001C0E003C0F00361B003686
:1046F0001B0037330033330063338061E18061E1B5
:104700008061C18060C180C0C0C0000000000000A6
:10471000000000000000000000000000008030C029
:1047200030E030F030F830DC30CC30C630C730C349
:10473000B0C1F0C0F0C070C030C010C010000000A8
:104740000000000000000000000000000007E00082
:104750001FF8003C1E00700700600300E00380C0EB
:104760000180C00180C00180C00180E0038060033F
:10477000007007003C1E001FF80007E0000000006A
:104780000000000000000000000000000000000029
:10479000FE00FF00C380C0C0C0C0C0C0C0C0C38096
:1047A000FF00FE00C000C000C000C000C000C0008C
:1047B000000000000000000000000000000007E012
:1047C0001FF83C3C700E6006C007C003C003C00366
:1047D000C0C3E0E36076703C3C1C1FF807E40002B5
:1047E000000000000000000000000000FC00FF00CE
:1047F000C700C380C180C180C180C300DE00C38008
:10480000C0C0C040C060C020C020C0300000000058
:1048100000000000000000003C7CE0C0C060380CDC
:10482000060303030306FEF800000000000000007A
:1048300000FFC0FFC00C000C000C000C000C000CB2
:10484000000C000C000C000C000C000C000C000C08
:10485000000000000000000000000000000000C098
:1048600060C060C060C060C060C060C060C060C048
:1048700060C060C060C060E0E071C03F801F0000A9
:1048800000000000000000000000000000E00660E2
:104890000E700C301C381818181C300C300E6006C6
:1048A0006007E003C003C001800180000000000039
:1048B00000000000000000000000000000E1800C8B
:1048C00061801870C01830C0301860301860600CFB
:1048D00030600C30C00638C00679C0036D8003ED2F
:1048E0008001C70001C700008200008200000000B4
:1048F00000000000000000000000000000000000B8
:104900006060306038C019C00D800F80070007005C
:1049100007000D801D8018C038E030607030E0382E
:104920000000000000000000000000000000E01C8B
:104930007038303018601CE00CC00780078003001E
:104940000300030003000300030003000300000052
:104950000000000000000000000000003FE03FE019
:1049600000C0018001800300070006000E000C005B
:1049700018001800300070007FF0FFF00000000009
:1049800000000000000000F0F0C0C0C0C0C0C0C007
:10499000C0C0C0C0C0C0C0C0C0C0C0F0F0C00060D7
:1049A0000070003000380018000C000E00060007F0
:1049B000000300018001C000C000E0006000300082
:1049C000300018001C000C0006000000F8F8181851
:1049D0001818181818181818181818181818181857
:1049E000F8F800002070D88C0000000000000000E3
:1049F00000000000000000000000000000000000B7
:104A000000000000000000000000000000000000A6
:104A1000000000000000000000000000000000FF97
:104A2000FEFFFE00000000000000E0300800000073
:104A30000000000000000000000000000000000076
:104A40000000000000000000000000001F003FC048
:104A500070F0E060C060C060C060E06070E03FE0A7
:104A60001E600000000000000000000000000000C8
:104A7000C000C000C000C000C000DF00FFC0E0E018
:104A8000C070C030C030C030C070F0E07FC01F8048
:104A90000000000000000000000000000000000016
:104AA00000000000000000001F803F807000E00058
:104AB000C000C000C000E00070003F801F80000008
:104AC0000000000000000000000000000060006026
:104AD0000060006000601F603FE070E0E060C06068
:104AE000C060C060E06070E03FC00F0000000000E8
:104AF00000000000000000000000000000000000B6
:104B0000000000000F803FC07060C030FFF0FFF079
:104B1000C000E00070003FC01FC0000000000000A7
:104B20000000000000000C1C383030FCFC3030303D
:104B30003030303030300000000000000000000055
:104B40000000000000000000000F003FC070F0E017
:104B500060C060C060C060E06070E03FE01E600068
:104B60006000E001C03FC03F0000000000C000C086
:104B700000C000C000C000DE00FF80E1C0C0C0C0B7
:104B8000C0C0C0C0C0C0C0C0C0C0C0C0C000000065
:104B900000000000000000000000C0C00000C0C015
:104BA000C0C0C0C0C0C0C0C0C00000000000000045
:104BB00000181800001818181818181818181818BD
:104BC000181838F0E000000000C000C000C000C0AD
:104BD00000C000C180C300C600CC00DE00E700C1F9
:104BE00080C080C080C0C0C0C000000000000000C5
:104BF0000000000000C0C0C0C0C0C0C0C0C0C0C075
:104C0000C0C0C0C0C00000000000000000000000E4
:104C10000000000000000000000000000000001E76
:104C20001E007F7F80E1E180C0C0C0C0C0C0C0C0A6
:104C3000C0C0C0C0C0C0C0C0C0C0C0C0C0C0C0C074
:104C40000000000000000000000000000000000064
:104C5000000000000000000000000000001E007FB7
:104C600080E180C0C0C0C0C0C0C0C0C0C0C0C0C0A3
:104C7000C0C0C000000000000000000000000000F4
:104C800000000000000000000000001F803FC07016
:104C9000E0E070C030C030C030E07070E03FC01F56
:104CA0000000000000000000000000000000000004
:104CB0000000000000000000001F003FC0E0E0C056
:104CC00070C030C030C030C070E0E0FFC0DF00C056
:104CD00000C000C000C000C00000000000000000D4
:104CE000000000000000000F003FC070F0E060C056
:104CF00060C060C060E06070E03FE01F6000600086
:104D00006000600060006000000000000000187893
:104D1000E0C0C0C0C0C0C0C0C000000000000000B3
:104D200000000000007CFCC0C06018060606FEF80B
:104D30000000000000000000000020207CFC6060FB
:104D400060606060606060000000000000000000C3
:104D500000000000000000000000C0C0C0C0C0C0D3
:104D6000C0C0C0C0C0C0C0C0C0C061C07F801F0084
:104D70000000000000000000000000000000000033
:104D80000000000000000000E030606030E030C053
:104D900019C019800F000F00060006000000000077
:104DA0000000000000000000000000000000000003
:104DB00000000000000000000000000000C04040B3
:104DC0006040C070E18030E18019F30019B3000D3C
:104DD000B6000F1E00071C00070C000208000200AE
:104DE00000000000000000000000000000000000C3
:104DF000000000000000000000000060C071803B67
:104E0000801F000E000E001F003B00718061C0C0BB
:104E1000E0000000000000000000000000000000B2
:104E2000000000000000000000C030606030E03092
:104E3000C019C019800F800F00070006000E000C7B
:104E4000001C0018003800300000000000000000C6
:104E5000000000000000003FC03FC00380070006C4
:104E6000000C001C00380030007FE0FFE000000074
:104E700000000000000000000018303030303030FA
:104E8000303030C03030303030303030301800000A
:104E9000C0C0C0C0C0C0C0C0C0C0C0C0C0C0C0C012
:104EA000C0C0C0C0C00000C04060606060606060A2
:104EB0006018606060606060606060C0000070FEEC
:104EC0001C000000000000000000000000000000C6
:104ED00000000000020000000200170005002E0084
:104EE000100045000800730010008A000E00B80092
:104EF0000200E6000600FD000600140108002B0178
:104F00000C004201020070010500870102009E01B1
:104F10000F00B5010B00E301060011020B0028028F
:104F20000C0056020D0084020B00B2020C00E002DD
:104F30000A000E030B003C030C006A0302009803F6
:104F40000300AF030800C6030800DD030800F403F4
:104F500008000B040F0022040F0050040A007E0416
:104F60000C00AC040D00DA040800080509001F0558
:104F70000D004D050B007B050200A9050600C005CC
:104F80000C00D7050700050612001C060C00610680
:104F900011008F060A00D406100002070C0030072B
:104FA00008005E070A0075070B00A3070F00D10772
:104FB0001600FF070D0044080E0072080C00A00840
:104FC0000400CE080F00E5080500130906002A09B1
:104FD0000F00410905006F090C0086090C00B40997
:104FE0000900E2090B00100A0C003E0A06006C0AD8
:104FF0000C00830A0A00B10A0200DF0A0500F60A63
:105000000A000D0B02003B0B1200520B0A00970B1B
:105010000C00C50B0C00F30B0C00210C05004F0C11
:105020000700660C06007D0C0A00940C0C00C20CF4
:105030001200F00C0B00350D0C00630D0B00910DF0
:105040000500BF0D0200D60D0500ED0D0700040E92
:1050500017207E00D44E0008B84000080008000861
:105060000008000000000000000000000000000830
:105070000030408000900090009000880088008000
:1050800020782178018000800088008000800188DD
:1050900000880080208000800080008800880080D8
:1050A000008000880090009001980090008800889F
:1050B000008801900190009800A000A82000000046
:1050C0000000518C10841084108430840000000093
:1050D00092941084108410848E73000000000000ED
:1050E0009294CF7B1084518CEB5A0000000000009A
:1050F000A210718CEF7B1084518C2C630000929471
:1051000010841084518C8E7300008210718C108476
:10511000EF7B518C694A0000000000000000000095
:105120008A5218C6DFFFFFFFDBDE00009294108476
:1051300010841084108410841084108410841084CF
:105140001084AE73000000000100010000000000A8
:1051500000000000000000084058C3A861C041C022
:1051600062B842B841C041C041C041C021C821C05D
:1051700041C041C041C040C021C841C041C041C040
:1051800041C021C820C021C042C062C041B082B825
:1051900082B041B081B0A2B083B063B063B062B8F6
:1051A00061B082B000000000E318DFFFFFFFFFFFE7
:1051B000FFFF75AD0000494AFFFFFFFFDFFFFFFF64
:1051C0001084000000002C63FFFFFFFFFFFFDFFFE4
:1051D0006D6B000000000000FFFFFFFFFFFFFFFFFF
:1051E000FFFF00002842FFFFFFFFFFFFDFFF3084CB
:1051F0002000518CFFFFFFFFFFFFFFFF0842000070
:10520000000000002000BEF7FFFFFFFFFFFFFFFFD1
:1052100055ADAA52FFFFFFFFFFFFFFFFDFFFFFFFBC
:10522000FFFFFFFFFFFFFFFFFFFF14A520000000AF
:105230000100010000000000000000002000001834
:10524000E39000B821D001C001B842C000D000D026
:1052500000D000D000D000D001C821C820C800C8AC
:1052600000D000D000C800D000D000D000D000D0C6
:1052700000D000C820C040B820B840C040C040B8EE
:1052800041B022B042B861B082A8007800000000AE
:10529000718CFFFFFFFFFFFFFFFF65290000B6B520
:1052A000FFFFFFFFFFFFFFFF0000000000009AD696
:1052B000FFFFFFFFFFFFFFFF000000000000FFFFF8
:1052C000FFFFFFFFFFFFFFFF00000000B6B5FFFF7D
:1052D000FFFFFFFFFFFF20000000DFFFFFFFBEF723
:1052E000FFFFFFFF000000000000C318FFFFFFFFEB
:1052F000FFFFFFFFDFFFFFFF4529DBDEFFFFFFFFB3
:10530000FFFFDFFFFFFFFFFFFFFFFFFFFFFFBEF716
:10531000FFFFA631010001000100010001000000B3
:10532000000000000000003883B000D001C841A890
:1053300082A0209841A041A06298619861986298EB
:1053400062986290819081906198629842984198A9
:105350006198619860A06198619861A020A820B8C8
:1053600041C820C840C040B841B821C041C060B069
:1053700004A1004800000000FFFFFFFFFFFFFFFF48
:10538000FFFF00000000FFFFFFFFFFFFFFFFFBDE4E
:10539000200000000000FFFFFFFFFFFFFFFF18C617
:1053A000000000005DEFFFFFFFFFFFFFFFFF410870
:1053B00000000000FFFFFFFFFFFFFFFF3CE72000B2
:1053C000E318FFFFFFFFFFFFFFFFD39C000020005B
:1053D0000000FFFFFFFFFFFFFFFFDFFFFFFFFFFFFB
:1053E0000000FFFFFFFFFFFFFFFFFFFFFFFFDFFFEB
:1053F000FFFFFFFFFFFFFFFFFFFF000001000000B6
:1054000000000000000000000000000000102170FB
:1054100021B821D021A86591F3E498FEBBFEBBFE24
:10542000BAFEDBFEDBFEDBFEBBFEDBFEDBFEDBFEF5
:10543000DBFEDAFEDBFEDBFEDBFEDBFED9FEDAFEA8
:10544000BAFE75ED29AA62A001B800C040B861B8E3
:1054500021B801C800C080A80381002800002421D1
:10546000DFFFFFFFFFFFFFFF14A50000694ADFFF1A
:10547000FFFFFFFFFFFFAE73000000006D6BFFFF3B
:10548000DFFFFFFFFFFFAA52000059CEDFFFFFFF43
:10549000DFFFFFFFE31800002000694AFFFFFFFF66
:1054A000FFFFFFFFAE7300009294FFFFFFFFFFFFBF
:1054B000DFFF86310000000018C6FFFFFFFFFFFF7F
:1054C000FFFFFFFFFFFF34A58E73DFFFFFFFFFFF2E
:1054D000FFFFFFFFFFFFFFFFFFFFFFFFFFFFFFFFDC
:1054E00034A50000000000000000000000000000E3
:1054F000000000000028E4A042B801A8CFDBBDFFF7
:10550000FEFFFEFFFFFFFFFFDFFFFFFFFFFFFFFFCD
:10551000FFFFFFFFFFFFFFFFFFFFFFFFFFFFFFFF9B
:10552000FFFFFFFFFFF7FFF7FFFFDFFF9EFF56FDC7
:1055300042A042C041B861B821B801D000C8C1B092
:105540002048000800009294FFFFFFFFFFFFFFFFCD
:10555000A210000018C6FFFFFFFFFFFFDFFF0000E3
:1055600000000000DBDEFFFFFFFFFFFFFFFF00008A
:1055700034A5FFFFFFFFFFFFFFFFC739000000005A
:105580000000D7BDFFFFDFFFFFFFFFFF200000008F
:10559000FFFFFFFFFFFFDFFFFFFF00000000200015
:1055A000FFFFFFFFFFFFFFFFFFFFEF7B000000009B
:1055B0008631C739A631494AFFFFFFFFFFFFFFFFD2
:1055C000F7BD4529C739E739610800000000000030
:1055D000000000080008000000000010005082A831
:1055E00041A00CCB9DFFFFFFFFF7FFF7FFFFFFFF81
:1055F000FFFFFFFFFFFFFFFFFFFFFFFFFFFFFFFFBB
:10560000FFFFFFFFFFFFFFFFFFFFFFFFFFF7FFFFB2
:10561000DFFFFFFFFFFFDEFF35FD019841B841C00E
:1056200021C001D000D0C2B0002020000000FFFF48
:10563000FFFFFFFFFFFFFFFF14A596B5FFFFFFFF72
:10564000FFFFFFFFFBDE000000000000FFFFFFFF89
:10565000FFFFFFFF14A52C63FFFFFFFFFFFFFFFF0E
:105660000C630000000000000000FFFFFFFFFFFFD1
:10567000FFFFFBDE00002421FFFFDFFFFFFFFFFF36
:10568000D39C000000006D6BDFFFFFFFFFFFFFFFFB
:10569000FFFF000000000000000000000000CF7BC2
:1056A000FFFFFFFFFFFFFFFF0842000000000000B8
:1056B00000000000000000000000000800080000DA
:1056C00020000018218062B061907DFFFFFFFFFF86
:1056D000FFFFFFFFDFFFFFFFFFEFFFF7FFFFFFFF12
:1056E000FFFFFFFFFFFFFFFFFFF7FFF7FFFFFFFFDA
:1056F000FFFFFFEFFFFFDFFFBFFFFFFFFFFFDEFF4B
:105700009DFFA6A921B000C821C801C821B8829078
:10571000001841006529FFFFFFFFFFFFFFFFDFFFCC
:10572000FFFFFFFFFFFFFFFFFFFFFFFF4D6B0000CD
:1057300000006D6BFFFFFFFFFFFFFFFF96B5FFFF50
:10574000FFFFFFFFFFFF10840000000000000000CB
:10575000694AFFFFFFFFFFFFFFFF8E730000B29457
:10576000FFFFFFFFFFFFFFFF452900000000F39C44
:10577000FFFFFFFFFFFFFFFFFFFF00000000000033
:105780000000000000009EF7FFFFFFFFFFFFFFFF8C
:1057900000000000000000000000000000082000E1
:1057A000200000080008200020000020A3B000B066
:1057B000AAC2BEFFFFFFDFFFDFFFFFFFDFFFFFF734
:1057C000FFE7FFEFFFF7FEFFFFFFFFFFDFFFFFFF3A
:1057D000FFFFFFF7FFFFFFFFFFFFFFEFFFFFFFFFF1
:1057E000FFFFFEFFFEFFFFFFDEFF91E440A000C8C9
:1057F00021C821B8A3A8006000182200D39CFFFF95
:10580000FFFFFFFFFFFFFFFFFFFFFFFFFFFFFFFFA8
:10581000FFFFFFFF0000000000001CE7FFFFFFFF8D
:10582000FFFFFFFF14A5FFFFFFFFFFFFFFFF2000AB
:105830000000000000000000F7BDFFFFFFFFFFFFBA
:10584000FFFF00000000FFFFFFFFFFFFFFFFFFFF64
:1058500000000000000014A5FFFFFFFFFFFFFFFF97
:10586000FFFF200000000000000000008210FFFF8A
:10587000FFFFFFFFFFFF55AD00000000000000002C
:1058800000000000000020000100000800082000C7
:105890004000004082B820B095FDFFFFFFF7DFFF1A
:1058A000DFFFFFFFFFFFDFFF9EFFFCFEFBFE1BFF96
:1058B000FAFEFBFEDBFEBBFEDBFEDBFEDEFF3CFF9B
:1058C000BEFF9EFFFFFFFFFFFEFFFEFFFFFFFFFF8C
:1058D000DFFF75ED61A020C800C862A804990038F8
:1058E00000102100FFFFFFFFFFFFFFFFFFFFFFFF93
:1058F000FFFFFFFFFFFFFFFFFFFF9AD60000000042
:105900000000FFFFFFFFFFFFFFFF55AD1084FFFF0B
:10591000FFFFDFFFFFFFE73900000000000000008D
:10592000FFFFFFFFDFFFFFFFBAD600002421FFFFCC
:10593000FFFFFFFFFFFF9294000000000000EF7BDD
:10594000FFFFFFFFFFFFFFFFFFFF0421000000003C
:1059500000000000518CFFFFFFFFFFFFFFFFC73972
:1059600000000000000000000000000020002000F7
:1059700001000100000800000010827841B861A811
:105980007CFFFFEFFFF7DFFFDEFFFFF7FDFF99FE74
:10599000619800A862A0629061908190619841A096
:1059A00061A082903CFF0461A28029EADFFFFFFF33
:1059B000FFFFFFFFFFFFFFFFDFFFB7F5619820C884
:1059C00000C882B0C378002000088629FFFFFFFFCF
:1059D000FFFFFFFF5DEF38C69AD6FFFFFFFFFFFF17
:1059E000FFFF2C6300000000CF7BFFFFFFFFFFFFE6
:1059F000FFFFE739EF7BFFFFFFFFFFFFFFFF0C63B8
:105A0000000000002000AA52FFFFFFFFFFFFDFFFA2
:105A10004D6B0000F39CFFFFFFFFFFFFFFFF4529D9
:105A2000000000000000E739FFFFFFFFFFFFFFFF5E
:105A3000FFFF82102000000000000000BEF7FFFF03
:105A4000FFFFFFFFFFFF000000000000000000005C
:105A500000000000000020002100010000000008FC
:105A60000028E4A041B049CABEFFFFEFFFF7BFFF27
:105A7000FFFFFFEF9CFFC18041B000C000D000C815
:105A800000D000C821D000C800C800A8DBFE65997E
:105A900061A000B8B8CD9FFFDFFFDEFFFFFFFFF77B
:105AA000DFFFB7F5619800D000D083B00048001048
:105AB000000033A5FFFFFFFFFFFFFFFFC31800003B
:105AC00018C6FFFFFFFFFFFFFFFF200000000000E0
:105AD0001CE7FFFFFFFFFFFFFFFF0000CF7BFFFF83
